{
  "contractName": "CoinMixer",
  "abi": [
    {
      "constant": true,
      "inputs": [
        {
          "name": "",
          "type": "uint256"
        }
      ],
      "name": "deals",
      "outputs": [
        {
          "name": "organizer",
          "type": "address"
        },
        {
          "name": "startTime",
          "type": "uint48"
        },
        {
          "name": "status",
          "type": "uint8"
        },
        {
          "name": "depositSum",
          "type": "uint256"
        },
        {
          "name": "numDeposits",
          "type": "uint256"
        },
        {
          "name": "depositInWei",
          "type": "uint256"
        },
        {
          "name": "numParticipants",
          "type": "uint256"
        },
        {
          "name": "title",
          "type": "bytes32"
        }
      ],
      "payable": false,
      "stateMutability": "view",
      "type": "function"
    },
    {
      "constant": true,
      "inputs": [],
      "name": "enigma",
      "outputs": [
        {
          "name": "",
          "type": "address"
        }
      ],
      "payable": false,
      "stateMutability": "view",
      "type": "function"
    },
    {
      "inputs": [
        {
          "name": "_enigmaAddress",
          "type": "address"
        }
      ],
      "payable": false,
      "stateMutability": "nonpayable",
      "type": "constructor"
    },
    {
      "anonymous": false,
      "inputs": [
        {
          "indexed": true,
          "name": "user",
          "type": "address"
        },
        {
          "indexed": true,
          "name": "_dealId",
          "type": "uint32"
        },
        {
          "indexed": false,
          "name": "_startTime",
          "type": "uint48"
        },
        {
          "indexed": false,
          "name": "_title",
          "type": "bytes32"
        },
        {
          "indexed": false,
          "name": "_depositInWei",
          "type": "uint256"
        },
        {
          "indexed": false,
          "name": "_numParticipants",
          "type": "uint256"
        },
        {
          "indexed": false,
          "name": "_success",
          "type": "bool"
        },
        {
          "indexed": false,
          "name": "_err",
          "type": "string"
        }
      ],
      "name": "NewDeal",
      "type": "event"
    },
    {
      "anonymous": false,
      "inputs": [
        {
          "indexed": true,
          "name": "_depositor",
          "type": "address"
        },
        {
          "indexed": true,
          "name": "_dealId",
          "type": "uint32"
        },
        {
          "indexed": false,
          "name": "_encryptedDestAddress",
          "type": "bytes"
        },
        {
          "indexed": false,
          "name": "_value",
          "type": "uint256"
        },
        {
          "indexed": false,
          "name": "_success",
          "type": "bool"
        },
        {
          "indexed": false,
          "name": "_err",
          "type": "string"
        }
      ],
      "name": "Deposit",
      "type": "event"
    },
    {
      "anonymous": false,
      "inputs": [
        {
          "indexed": true,
          "name": "_dealId",
          "type": "uint32"
        },
        {
          "indexed": false,
          "name": "individualAmountInWei",
          "type": "uint256"
        },
        {
          "indexed": false,
          "name": "destAddresses",
          "type": "address[]"
        },
        {
          "indexed": false,
          "name": "nbTransfers",
          "type": "uint32"
        },
        {
          "indexed": false,
          "name": "_success",
          "type": "bool"
        },
        {
          "indexed": false,
          "name": "_err",
          "type": "string"
        }
      ],
      "name": "Distribute",
      "type": "event"
    },
    {
      "anonymous": false,
      "inputs": [
        {
          "indexed": true,
          "name": "to",
          "type": "address"
        },
        {
          "indexed": false,
          "name": "value",
          "type": "uint256"
        }
      ],
      "name": "TransferredToken",
      "type": "event"
    },
    {
      "anonymous": false,
      "inputs": [
        {
          "indexed": true,
          "name": "to",
          "type": "address"
        },
        {
          "indexed": false,
          "name": "value",
          "type": "uint256"
        }
      ],
      "name": "FailedTransfer",
      "type": "event"
    },
    {
      "anonymous": false,
      "inputs": [
        {
          "indexed": true,
          "name": "_dealId",
          "type": "uint32"
        }
      ],
      "name": "DealFullyFunded",
      "type": "event"
    },
    {
      "anonymous": false,
      "inputs": [
        {
          "indexed": true,
          "name": "_dealId",
          "type": "uint32"
        },
        {
          "indexed": false,
          "name": "_success",
          "type": "bool"
        }
      ],
      "name": "DealExecuted",
      "type": "event"
    },
    {
      "constant": false,
      "inputs": [
        {
          "name": "_title",
          "type": "bytes32"
        },
        {
          "name": "_depositInWei",
          "type": "uint256"
        },
        {
          "name": "_numParticipants",
          "type": "uint256"
        }
      ],
      "name": "newDeal",
      "outputs": [
        {
          "name": "",
          "type": "uint8"
        }
      ],
      "payable": false,
      "stateMutability": "nonpayable",
      "type": "function"
    },
    {
      "constant": false,
      "inputs": [
        {
          "name": "dealId",
          "type": "uint32"
        },
        {
          "name": "encryptedDestAddress",
          "type": "bytes"
        }
      ],
      "name": "makeDeposit",
      "outputs": [
        {
          "name": "",
          "type": "uint8"
        }
      ],
      "payable": true,
      "stateMutability": "payable",
      "type": "function"
    },
    {
      "constant": true,
      "inputs": [
        {
          "name": "dealId",
          "type": "uint32"
        },
        {
          "name": "destAddresses",
          "type": "address[]"
        },
        {
          "name": "rand",
          "type": "uint256"
        }
      ],
      "name": "mixAddresses",
      "outputs": [
        {
          "name": "",
          "type": "uint32"
        },
        {
          "name": "",
          "type": "address[]"
        }
      ],
      "payable": false,
      "stateMutability": "pure",
      "type": "function"
    },
    {
      "constant": false,
      "inputs": [
        {
          "name": "dealId",
          "type": "uint32"
        },
        {
          "name": "destAddresses",
          "type": "address[]"
        }
      ],
      "name": "distribute",
      "outputs": [
        {
          "name": "",
          "type": "uint8"
        }
      ],
      "payable": false,
      "stateMutability": "nonpayable",
      "type": "function"
    },
    {
      "constant": true,
      "inputs": [],
      "name": "listDeals",
      "outputs": [
        {
          "name": "",
          "type": "uint256[]"
        },
        {
          "name": "",
          "type": "uint256[]"
        },
        {
          "name": "",
          "type": "uint256[]"
        }
      ],
      "payable": false,
      "stateMutability": "view",
      "type": "function"
    },
    {
      "constant": true,
      "inputs": [
        {
          "name": "_dealId",
          "type": "uint32"
        }
      ],
      "name": "dealStatus",
      "outputs": [
        {
          "name": "",
          "type": "bytes32"
        },
        {
          "name": "",
          "type": "uint256"
        },
        {
          "name": "",
          "type": "uint256"
        },
        {
          "name": "",
          "type": "uint256"
        },
        {
          "name": "",
          "type": "uint256"
        },
        {
          "name": "",
          "type": "uint256"
        }
      ],
      "payable": false,
      "stateMutability": "view",
      "type": "function"
    },
    {
      "constant": true,
      "inputs": [
        {
          "name": "_dealId",
          "type": "uint32"
        }
      ],
      "name": "countEncryptedAddresses",
      "outputs": [
        {
          "name": "",
          "type": "uint256"
        }
      ],
      "payable": false,
      "stateMutability": "view",
      "type": "function"
    },
    {
      "constant": true,
      "inputs": [
        {
          "name": "_dealId",
          "type": "uint32"
        },
        {
          "name": "index",
          "type": "uint256"
        }
      ],
      "name": "getEncryptedAddress",
      "outputs": [
        {
          "name": "",
          "type": "bytes"
        }
      ],
      "payable": false,
      "stateMutability": "view",
      "type": "function"
    }
  ],
  "bytecode": "0x608060405234801561001057600080fd5b506040516020806118f4833981016040525160008054600160a060020a03909216600160a060020a03199092169190911790556118a2806100526000396000f3006080604052600436106100a35763ffffffff7c010000000000000000000000000000000000000000000000000000000060003504166303988f8481146100a857806310f11e84146101145780632aaf281b146102075780633b8332451461028257806357f5fc28146102b2578063a06a585614610348578063b24fd5c514610366578063d10e1e6914610397578063daefe738146103f7578063dd20866e14610448575b600080fd5b3480156100b457600080fd5b506100c0600435610511565b60408051600160a060020a03909916895265ffffffffffff909716602089015260ff909516878701526060870193909352608086019190915260a085015260c084015260e083015251908190036101000190f35b34801561012057600080fd5b50610129610588565b60405180806020018060200180602001848103845287818151815260200191508051906020019060200280838360005b83811015610171578181015183820152602001610159565b50505050905001848103835286818151815260200191508051906020019060200280838360005b838110156101b0578181015183820152602001610198565b50505050905001848103825285818151815260200191508051906020019060200280838360005b838110156101ef5781810151838201526020016101d7565b50505050905001965050505050505060405180910390f35b60408051602060046024803582810135601f810185900485028601850190965285855261025e95833563ffffffff1695369560449491939091019190819084018382808284375094975061072e9650505050505050565b6040518082600181111561026e57fe5b60ff16815260200191505060405180910390f35b34801561028e57600080fd5b506102a063ffffffff60043516610b08565b60408051918252519081900360200190f35b3480156102be57600080fd5b506102d363ffffffff60043516602435610b39565b6040805160208082528351818301528351919283929083019185019080838360005b8381101561030d5781810151838201526020016102f5565b50505050905090810190601f16801561033a5780820380516001836020036101000a031916815260200191505b509250505060405180910390f35b34801561035457600080fd5b5061025e600435602435604435610c09565b34801561037257600080fd5b5061037b610f58565b60408051600160a060020a039092168252519081900360200190f35b3480156103a357600080fd5b5060408051602060046024803582810135848102808701860190975280865261025e96843563ffffffff1696369660449591949091019291829185019084908082843750949750610f679650505050505050565b34801561040357600080fd5b5061041563ffffffff600435166112ee565b604080519687526020870195909552858501939093526060850191909152608084015260a0830152519081900360c00190f35b34801561045457600080fd5b506040805160206004602480358281013584810280870186019097528086526104aa96843563ffffffff1696369660449591949091019291829185019084908082843750949750509335945061140c9350505050565b604051808363ffffffff1663ffffffff16815260200180602001828103825283818151815260200191508051906020019060200280838360005b838110156104fc5781810151838201526020016104e4565b50505050905001935050505060405180910390f35b600180548290811061051f57fe5b6000918252602090912060099091020180546001820154600283015460038401546004850154600590950154600160a060020a038516965074010000000000000000000000000000000000000000850465ffffffffffff169560d060020a90950460ff16949088565b60608060608060608060006001805490506040519080825280602002602001820160405280156105c2578160200160208202803883390190505b5060015460408051828152602080840282010190915291955080156105f1578160200160208202803883390190505b506001546040805182815260208084028201019091529194508015610620578160200160208202803883390190505b509150600090505b60015481101561072157600180548290811061064057fe5b9060005260206000209060090201600001601a9054906101000a900460ff1660ff16848281518110151561067057fe5b6020908102909101015260018054600091908390811061068c57fe5b600091825260208083203384526008600990930201919091019052604090205411156106cd57600183828151811015156106c257fe5b602090810290910101525b60018054339190839081106106de57fe5b6000918252602090912060099091020154600160a060020a03161415610719576001828281518110151561070e57fe5b602090810290910101525b600101610628565b5091959094509092509050565b600080348110610788576040805160e560020a62461bcd02815260206004820152601f60248201527f4465706f7369742076616c7565206d75737420626520706f7369746976652e00604482015290519081900360640190fd5b6001805463ffffffff861690811061079c57fe5b600091825260209091206009909102015460d060020a900460ff161561080c576040805160e560020a62461bcd02815260206004820152601b60248201527f496c6c6567616c20737461746520666f72206465706f736974732e0000000000604482015290519081900360640190fd5b6001805463ffffffff861690811061082057fe5b9060005260206000209060090201905080600301543481151561083f57fe5b06156108bb576040805160e560020a62461bcd02815260206004820152603060248201527f4465706f7369742076616c7565206d7573742062652061206d756c7469706c6560448201527f206f6620636c61696d2076616c75652e00000000000000000000000000000000606482015290519081900360840190fd5b33600090815260088201602052604090205415610948576040805160e560020a62461bcd02815260206004820152602b60248201527f43616e6e6f74206465706f73697420747769636520776974682074686520736160448201527f6d6520616464726573732e000000000000000000000000000000000000000000606482015290519081900360840190fd5b600181018054349081019091553360009081526008830160205260409020556002810154600682018054859290811061097d57fe5b90600052602060002001908051906020019061099a929190611593565b506002810180546001908101909155604080513460208083018290529282018490526080808352875190830152865163ffffffff89169433947fce7036acc3606aaa1ec3a2e7b4d13b3f4da34ee1eac298fc47524074de74a3bf948a949390918291606083019160a08401919088019080838360005b83811015610a28578181015183820152602001610a10565b50505050905090810190601f168015610a555780820380516001836020036101000a031916815260200191505b50928303905250600881527f616c6c20676f6f6400000000000000000000000000000000000000000000000060208201526040805191829003019350915050a36004810154600282015410610afe5780547aff0000000000000000000000000000000000000000000000000000191660d060020a17815560405163ffffffff8516907fa98c11bc69afe22b520fe800f82e421f9594d4f06259a7600711b75af05a43b990600090a25b5060009392505050565b600060018263ffffffff16815481101515610b1f57fe5b600091825260209091206006600990920201015492915050565b606060018363ffffffff16815481101515610b5057fe5b906000526020600020906009020160060182815481101515610b6e57fe5b600091825260209182902001805460408051601f6002600019610100600187161502019094169390930492830185900485028101850190915281815292830182828015610bfc5780601f10610bd157610100808354040283529160200191610bfc565b820191906000526020600020905b815481529060010190602001808311610bdf57829003601f168201915b5050505050905092915050565b600180546000918190610c1e90828101611611565b503360018263ffffffff16815481101515610c3557fe5b906000526020600020906009020160000160006101000a815481600160a060020a030219169083600160a060020a031602179055508460018263ffffffff16815481101515610c8057fe5b600091825260208220600560099092020101919091556001805463ffffffff8416908110610caa57fe5b906000526020600020906009020160010181905550600060018263ffffffff16815481101515610cd657fe5b9060005260206000209060090201600201819055504260018263ffffffff16815481101515610d0157fe5b906000526020600020906009020160000160146101000a81548165ffffffffffff021916908365ffffffffffff1602179055508360018263ffffffff16815481101515610d4a57fe5b9060005260206000209060090201600301819055508260018263ffffffff16815481101515610d7557fe5b90600052602060002090600902016004018190555082604051908082528060200260200182016040528015610dbe57816020015b6060815260200190600190039081610da95790505b506001805463ffffffff8416908110610dd357fe5b90600052602060002090600902016006019080519060200190610df7929190611642565b5082604051908082528060200260200182016040528015610e22578160200160208202803883390190505b506001805463ffffffff8416908110610e3757fe5b90600052602060002090600902016007019080519060200190610e5b92919061169b565b50600060018263ffffffff16815481101515610e7357fe5b6000918252602091829020600990910201805460ff9390931660d060020a027aff000000000000000000000000000000000000000000000000000019909316929092179091556040805165ffffffffffff42168152918201879052818101869052606082018590526001608083015260c060a083018190526008908301527f616c6c20676f6f6400000000000000000000000000000000000000000000000060e08301525163ffffffff83169133917f876b9043d809880bec360c3c9d8e8819a90016c1d6a6958015ece6039873f790918190036101000190a3506000949350505050565b600054600160a060020a031681565b600080548190600160a060020a03163314610ff2576040805160e560020a62461bcd02815260206004820152602260248201527f53656e646572206973206e6f742074686520456e69676d6120636f6e7472616360448201527f742e000000000000000000000000000000000000000000000000000000000000606482015290519081900360840190fd5b6001805463ffffffff861690811061100657fe5b600091825260209091206009909102015460d060020a900460ff16600114611078576040805160e560020a62461bcd02815260206004820152601560248201527f4465616c206973206e6f742065786563757465642e0000000000000000000000604482015290519081900360640190fd5b8260018563ffffffff1681548110151561108e57fe5b906000526020600020906009020160070190805190602001906110b292919061169b565b50600090505b6001805463ffffffff86169081106110cc57fe5b906000526020600020906009020160070180549050811015611191576001805463ffffffff86169081106110fc57fe5b90600052602060002090600902016007018181548110151561111a57fe5b60009182526020909120015460018054600160a060020a03909216916108fc919063ffffffff881690811061114b57fe5b9060005260206000209060090201600301549081150290604051600060405180830381858888f19350505050158015611188573d6000803e3d6000fd5b506001016110b8565b6001805463ffffffff8616917f1187ca8b8cb5197d0ccbe2a81015221695030dd9d87d9d5fc1f6678d65d5813491839081106111c957fe5b90600052602060002090600902016003015460018763ffffffff168154811015156111f057fe5b906000526020600020906009020160070160018863ffffffff1681548110151561121657fe5b906000526020600020906009020160070180549050600160405180858152602001806020018463ffffffff1663ffffffff168152602001831515151581526020018060200183810383528681815481526020019150805480156112a257602002820191906000526020600020905b8154600160a060020a03168152600190910190602001808311611284575b5050928303905250600881527f616c6c20676f6f640000000000000000000000000000000000000000000000006020820152604080519182900301945092505050a25060009392505050565b60008060008060008060008060008060008060018d63ffffffff1681548110151561131557fe5b906000526020600020906009020160050154955060018d63ffffffff1681548110151561133e57fe5b906000526020600020906009020160040154945060018d63ffffffff1681548110151561136757fe5b906000526020600020906009020160030154935060018d63ffffffff1681548110151561139057fe5b906000526020600020906009020160020154925060018d63ffffffff168154811015156113b957fe5b906000526020600020906009020160010154915060018d63ffffffff168154811015156113e257fe5b6000918252602090912060076009909202010154959d949c50929a50909850965091945092505050565b815160009060609082805b6000831115611587578286600101604051602001808281526020019150506040516020818303038152906040526040518082805190602001908083835b602083106114735780518252601f199092019160209182019101611454565b5181516020939093036101000a60001901801990911692169190911790526040519201829003909120925050508115156114a957fe5b06915086600184038151811015156114bd57fe5b90602001906020020151600160a060020a031687838151811015156114de57fe5b60209081029091010151600160a060020a03161461157b57866001840381518110151561150757fe5b906020019060200201519050868281518110151561152157fe5b90602001906020020151876001850381518110151561153c57fe5b600160a060020a039092166020928302909101909101528651819088908490811061156357fe5b600160a060020a039092166020928302909101909101525b60001990920191611417565b50959694955050505050565b828054600181600116156101000203166002900490600052602060002090601f016020900481019282601f106115d457805160ff1916838001178555611601565b82800160010185558215611601579182015b828111156116015782518255916020019190600101906115e6565b5061160d929150611709565b5090565b81548183558181111561163d5760090281600902836000526020600020918201910161163d9190611726565b505050565b82805482825590600052602060002090810192821561168f579160200282015b8281111561168f578251805161167f918491602090910190611593565b5091602001919060010190611662565b5061160d92915061179f565b8280548282559060005260206000209081019282156116fd579160200282015b828111156116fd578251825473ffffffffffffffffffffffffffffffffffffffff1916600160a060020a039091161782556020909201916001909101906116bb565b5061160d9291506117c2565b61172391905b8082111561160d576000815560010161170f565b90565b61172391905b8082111561160d5780547affffffffffffffffffffffffffffffffffffffffffffffffffffff191681556000600182018190556002820181905560038201819055600482018190556005820181905561178860068301826117f3565b611796600783016000611814565b5060090161172c565b61172391905b8082111561160d5760006117b98282611832565b506001016117a5565b61172391905b8082111561160d57805473ffffffffffffffffffffffffffffffffffffffff191681556001016117c8565b5080546000825590600052602060002090810190611811919061179f565b50565b50805460008255906000526020600020908101906118119190611709565b50805460018160011615610100020316600290046000825580601f106118585750611811565b601f01602090049060005260206000209081019061181191906117095600a165627a7a72305820b79db93c7571320bf50efd924c3b78e05079bf8f4afd870902607e6be2575f380029",
  "source": "pragma solidity ^0.4.24;\n\nimport \"./Enigma.sol\";\n\ncontract CoinMixer {\n\n    Enigma public enigma;\n\n    struct Deal {\n        address organizer;\n        uint48 startTime;\n        uint8 status; // 0: active; 1: funded; 2: executed; 3: cancelled\n        uint depositSum;\n        uint numDeposits;\n        uint depositInWei;\n        uint numParticipants;\n        bytes32 title;\n        bytes[] encryptedDestAddresses;\n        address[] destAddresses;\n        mapping(address => uint) deposit;\n    }\n\n    Deal[] public deals;\n\n    event NewDeal(\n        address indexed user,\n        uint32 indexed _dealId,\n        uint48 _startTime,\n        bytes32 _title,\n        uint _depositInWei,\n        uint _numParticipants,\n        bool _success,\n        string _err\n    );\n    event Deposit(\n        address indexed _depositor,\n        uint32 indexed _dealId,\n        bytes _encryptedDestAddress,\n        uint _value,\n        bool _success,\n        string _err\n    );\n    event Distribute(\n        uint32 indexed _dealId,\n        uint individualAmountInWei,\n        address[] destAddresses,\n        uint32 nbTransfers,\n        bool _success,\n        string _err\n    );\n\n    event TransferredToken(address indexed to, uint256 value);\n    event FailedTransfer(address indexed to, uint256 value);\n\n    event DealFullyFunded(uint32 indexed _dealId);\n    event DealExecuted(uint32 indexed _dealId, bool _success);\n\n    // TODO: switch to require() once it accepts a message parameter\n    enum ReturnValue {Ok, Error}\n\n    constructor(address _enigmaAddress) public {\n        enigma = Enigma(_enigmaAddress);\n    }\n\n    function newDeal(bytes32 _title, uint _depositInWei, uint _numParticipants)\n    public\n    returns (ReturnValue)\n    {\n        uint32 dealId = uint32(deals.length);\n\n        deals.length++;\n        deals[dealId].organizer = msg.sender;\n        deals[dealId].title = _title;\n        deals[dealId].depositSum = 0;\n        deals[dealId].numDeposits = 0;\n        deals[dealId].startTime = uint48(now);\n        deals[dealId].depositInWei = _depositInWei;\n        deals[dealId].numParticipants = _numParticipants;\n        deals[dealId].encryptedDestAddresses = new bytes[](_numParticipants);\n        deals[dealId].destAddresses = new address[](_numParticipants);\n        deals[dealId].status = 0;\n        emit NewDeal(\n            msg.sender,\n            dealId,\n            uint48(now),\n            _title,\n            _depositInWei,\n            _numParticipants,\n            true,\n            \"all good\"\n        );\n\n        return ReturnValue.Ok;\n    }\n\n    function makeDeposit(uint32 dealId, bytes encryptedDestAddress)\n    public\n    payable\n    returns (ReturnValue)\n    {\n        require(msg.value > 0, \"Deposit value must be positive.\");\n        require(deals[dealId].status == 0, \"Illegal state for deposits.\");\n\n        Deal storage deal = deals[dealId];\n        require((msg.value % deal.depositInWei) == 0, \"Deposit value must be a multiple of claim value.\");\n        require(deal.deposit[msg.sender] == 0, \"Cannot deposit twice with the same address.\");\n\n        // actual deposit\n        deal.depositSum += msg.value;\n        deal.deposit[msg.sender] = msg.value;\n        deal.encryptedDestAddresses[deal.numDeposits] = encryptedDestAddress;\n        deal.numDeposits += 1;\n\n        emit Deposit(msg.sender, dealId, encryptedDestAddress, msg.value, true, \"all good\");\n\n        if (deal.numDeposits >= deal.numParticipants) {\n            deal.status = 1;\n            emit DealFullyFunded(dealId);\n        }\n        return ReturnValue.Ok;\n    }\n\n    function mixAddresses(uint32 dealId, address[] destAddresses, uint256 rand)\n    public\n    pure\n    returns (uint32, address[])\n    {\n        // Shuffling the specified address using a random seed.\n        // Doing a Fisher-Yates Shuffle with a single integer\n        // between 0 and 127. To get more numbers in the loop,\n        // we'll add 1 to our seed and hash it.\n        uint i = destAddresses.length;\n        while (i > 0) {\n            uint j = uint(keccak256(abi.encodePacked(rand + 1))) % i;\n\n            // Array swap\n            if (destAddresses[j] != destAddresses[i - 1]) {\n                address destAddress = destAddresses[i - 1];\n                destAddresses[i - 1] = destAddresses[j];\n                destAddresses[j] = destAddress;\n            }\n            i--;\n        }\n        return (dealId, destAddresses);\n    }\n\n    modifier onlyEnigma() {\n        require(msg.sender == address(enigma), \"Sender is not the Enigma contract.\");\n        _;\n    }\n\n    function distribute(uint32 dealId, address[] destAddresses)\n    public\n    onlyEnigma()\n    returns (ReturnValue)\n    {\n        // Distribute the deposits to destination addresses\n        require(deals[dealId].status == 1, \"Deal is not executed.\");\n        deals[dealId].destAddresses = destAddresses;\n\n        for (uint i = 0; i < deals[dealId].destAddresses.length; i++) {\n            deals[dealId].destAddresses[i].transfer(deals[dealId].depositInWei);\n        }\n\n        emit Distribute(\n            dealId,\n            deals[dealId].depositInWei,\n            deals[dealId].destAddresses,\n            uint32(deals[dealId].destAddresses.length),\n            true,\n            \"all good\"\n        );\n        return ReturnValue.Ok;\n    }\n\n    function listDeals() public view returns (uint[], uint[], uint[]) {\n        // A list of deals with their key properties\n        uint[] memory status = new uint[](deals.length);\n        uint[] memory participates = new uint[](deals.length);\n        uint[] memory organizes = new uint[](deals.length);\n\n        for (uint i = 0; i < deals.length; i++) {\n            status[i] = deals[i].status;\n\n            if (deals[i].deposit[msg.sender] > 0) {\n                participates[i] = 1;\n            }\n\n            if (deals[i].organizer == msg.sender) {\n                organizes[i] = 1;\n            }\n        }\n        return (status, participates, organizes);\n    }\n\n    function dealStatus(uint32 _dealId)\n    public\n    view\n    returns (bytes32, uint, uint, uint, uint, uint)\n    {\n        // Key attributes of a deal\n        bytes32 title = deals[_dealId].title;\n        uint numParticipants = deals[_dealId].numParticipants;\n        uint deposit = deals[_dealId].depositInWei;\n        uint numDeposits = deals[_dealId].numDeposits;\n        uint depositSum = deals[_dealId].depositSum;\n        uint numDestAddresses = deals[_dealId].destAddresses.length;\n\n        return (title, numParticipants, deposit, numDeposits, depositSum, numDestAddresses);\n    }\n\n    function countEncryptedAddresses(uint32 _dealId)\n    public\n    view\n    returns (uint)\n    {\n        // Count the addresses\n        return deals[_dealId].encryptedDestAddresses.length;\n    }\n\n    function getEncryptedAddress(uint32 _dealId, uint index)\n    public\n    view\n    returns (bytes)\n    {\n        // Returns an array of encrypted addresses\n        return deals[_dealId].encryptedDestAddresses[index];\n    }\n}\n\n",
  "sourcePath": "/home/wildermind/WebstormProjects/enigma-contract-internal/contracts/CoinMixer.sol",
  "compiler": {
    "name": "solc",
    "version": "0.4.24+commit.e67f0147.Emscripten.clang"
  },
  "schemaVersion": "2.0.0",
  "updatedAt": "2018-10-14T09:14:17.685Z"
}