{
  "contractName": "EnigmaMock",
  "abi": [
    {
      "constant": true,
      "inputs": [
        {
          "name": "",
          "type": "uint256"
        }
      ],
      "name": "workerAddresses",
      "outputs": [
        {
          "name": "",
          "type": "address"
        }
      ],
      "payable": false,
      "stateMutability": "view",
      "type": "function"
    },
    {
      "constant": true,
      "inputs": [
        {
          "name": "",
          "type": "address"
        }
      ],
      "name": "workers",
      "outputs": [
        {
          "name": "signer",
          "type": "address"
        },
        {
          "name": "status",
          "type": "uint8"
        },
        {
          "name": "report",
          "type": "bytes"
        },
        {
          "name": "balance",
          "type": "uint256"
        }
      ],
      "payable": false,
      "stateMutability": "view",
      "type": "function"
    },
    {
      "constant": true,
      "inputs": [
        {
          "name": "",
          "type": "uint256"
        }
      ],
      "name": "scAddresses",
      "outputs": [
        {
          "name": "",
          "type": "address"
        }
      ],
      "payable": false,
      "stateMutability": "view",
      "type": "function"
    },
    {
      "constant": true,
      "inputs": [
        {
          "name": "",
          "type": "address"
        }
      ],
      "name": "contracts",
      "outputs": [
        {
          "name": "owner",
          "type": "address"
        },
        {
          "name": "codeHash",
          "type": "bytes32"
        },
        {
          "name": "status",
          "type": "uint8"
        }
      ],
      "payable": false,
      "stateMutability": "view",
      "type": "function"
    },
    {
      "constant": true,
      "inputs": [],
      "name": "engToken",
      "outputs": [
        {
          "name": "",
          "type": "address"
        }
      ],
      "payable": false,
      "stateMutability": "view",
      "type": "function"
    },
    {
      "constant": true,
      "inputs": [
        {
          "name": "",
          "type": "bytes32"
        }
      ],
      "name": "tasks",
      "outputs": [
        {
          "name": "fee",
          "type": "uint256"
        },
        {
          "name": "token",
          "type": "address"
        },
        {
          "name": "tokenValue",
          "type": "uint256"
        },
        {
          "name": "proof",
          "type": "bytes"
        },
        {
          "name": "sender",
          "type": "address"
        },
        {
          "name": "status",
          "type": "uint8"
        }
      ],
      "payable": false,
      "stateMutability": "view",
      "type": "function"
    },
    {
      "inputs": [
        {
          "name": "_tokenAddress",
          "type": "address"
        },
        {
          "name": "_principal",
          "type": "address"
        }
      ],
      "payable": false,
      "stateMutability": "nonpayable",
      "type": "constructor"
    },
    {
      "anonymous": false,
      "inputs": [
        {
          "indexed": false,
          "name": "custodian",
          "type": "address"
        },
        {
          "indexed": false,
          "name": "signer",
          "type": "address"
        }
      ],
      "name": "Registered",
      "type": "event"
    },
    {
      "anonymous": false,
      "inputs": [
        {
          "indexed": false,
          "name": "sig",
          "type": "bytes"
        },
        {
          "indexed": false,
          "name": "hash",
          "type": "bytes32"
        },
        {
          "indexed": false,
          "name": "workerAddr",
          "type": "address"
        }
      ],
      "name": "ValidatedSig",
      "type": "event"
    },
    {
      "anonymous": false,
      "inputs": [
        {
          "indexed": false,
          "name": "seed",
          "type": "uint256"
        },
        {
          "indexed": false,
          "name": "blockNumber",
          "type": "uint256"
        },
        {
          "indexed": false,
          "name": "workers",
          "type": "address[]"
        },
        {
          "indexed": false,
          "name": "balances",
          "type": "uint256[]"
        }
      ],
      "name": "WorkersParameterized",
      "type": "event"
    },
    {
      "anonymous": false,
      "inputs": [
        {
          "indexed": false,
          "name": "taskId",
          "type": "bytes32"
        },
        {
          "indexed": false,
          "name": "fee",
          "type": "uint256"
        },
        {
          "indexed": false,
          "name": "token",
          "type": "address"
        },
        {
          "indexed": false,
          "name": "tokenValue",
          "type": "uint256"
        },
        {
          "indexed": false,
          "name": "sender",
          "type": "address"
        }
      ],
      "name": "TaskRecordCreated",
      "type": "event"
    },
    {
      "anonymous": false,
      "inputs": [
        {
          "indexed": false,
          "name": "taskIds",
          "type": "bytes32[]"
        },
        {
          "indexed": false,
          "name": "fees",
          "type": "uint256[]"
        },
        {
          "indexed": false,
          "name": "tokens",
          "type": "address[]"
        },
        {
          "indexed": false,
          "name": "tokenValues",
          "type": "uint256[]"
        },
        {
          "indexed": false,
          "name": "sender",
          "type": "address"
        }
      ],
      "name": "TaskRecordsCreated",
      "type": "event"
    },
    {
      "anonymous": false,
      "inputs": [
        {
          "indexed": false,
          "name": "taskId",
          "type": "bytes32"
        },
        {
          "indexed": false,
          "name": "inStateDeltaHash",
          "type": "bytes32"
        },
        {
          "indexed": false,
          "name": "outStateDeltaHash",
          "type": "bytes32"
        },
        {
          "indexed": false,
          "name": "ethCall",
          "type": "bytes"
        },
        {
          "indexed": false,
          "name": "sig",
          "type": "bytes"
        }
      ],
      "name": "ReceiptVerified",
      "type": "event"
    },
    {
      "anonymous": false,
      "inputs": [
        {
          "indexed": false,
          "name": "taskIds",
          "type": "bytes32[]"
        },
        {
          "indexed": false,
          "name": "inStateDeltaHashes",
          "type": "bytes32[]"
        },
        {
          "indexed": false,
          "name": "outStateDeltaHashes",
          "type": "bytes32[]"
        },
        {
          "indexed": false,
          "name": "ethCall",
          "type": "bytes"
        },
        {
          "indexed": false,
          "name": "sig",
          "type": "bytes"
        }
      ],
      "name": "ReceiptsVerified",
      "type": "event"
    },
    {
      "anonymous": false,
      "inputs": [
        {
          "indexed": false,
          "name": "from",
          "type": "address"
        },
        {
          "indexed": false,
          "name": "value",
          "type": "uint256"
        }
      ],
      "name": "DepositSuccessful",
      "type": "event"
    },
    {
      "anonymous": false,
      "inputs": [
        {
          "indexed": false,
          "name": "scAddr",
          "type": "address"
        },
        {
          "indexed": false,
          "name": "codeHash",
          "type": "bytes32"
        }
      ],
      "name": "SecretContractDeployed",
      "type": "event"
    },
    {
      "constant": false,
      "inputs": [
        {
          "name": "signer",
          "type": "address"
        },
        {
          "name": "report",
          "type": "bytes"
        }
      ],
      "name": "register",
      "outputs": [],
      "payable": false,
      "stateMutability": "nonpayable",
      "type": "function"
    },
    {
      "constant": false,
      "inputs": [
        {
          "name": "custodian",
          "type": "address"
        },
        {
          "name": "amount",
          "type": "uint256"
        }
      ],
      "name": "deposit",
      "outputs": [],
      "payable": false,
      "stateMutability": "nonpayable",
      "type": "function"
    },
    {
      "constant": false,
      "inputs": [
        {
          "name": "scAddr",
          "type": "address"
        },
        {
          "name": "codeHash",
          "type": "bytes32"
        },
        {
          "name": "owner",
          "type": "address"
        },
        {
          "name": "sig",
          "type": "bytes"
        }
      ],
      "name": "deploySecretContract",
      "outputs": [],
      "payable": false,
      "stateMutability": "nonpayable",
      "type": "function"
    },
    {
      "constant": true,
      "inputs": [
        {
          "name": "scAddr",
          "type": "address"
        }
      ],
      "name": "isDeployed",
      "outputs": [
        {
          "name": "",
          "type": "bool"
        }
      ],
      "payable": false,
      "stateMutability": "view",
      "type": "function"
    },
    {
      "constant": true,
      "inputs": [
        {
          "name": "scAddr",
          "type": "address"
        }
      ],
      "name": "getCodeHash",
      "outputs": [
        {
          "name": "",
          "type": "bytes32"
        }
      ],
      "payable": false,
      "stateMutability": "view",
      "type": "function"
    },
    {
      "constant": true,
      "inputs": [],
      "name": "countSecretContracts",
      "outputs": [
        {
          "name": "",
          "type": "uint256"
        }
      ],
      "payable": false,
      "stateMutability": "view",
      "type": "function"
    },
    {
      "constant": true,
      "inputs": [
        {
          "name": "start",
          "type": "uint256"
        },
        {
          "name": "stop",
          "type": "uint256"
        }
      ],
      "name": "getSecretContractAddresses",
      "outputs": [
        {
          "name": "",
          "type": "address[]"
        }
      ],
      "payable": false,
      "stateMutability": "view",
      "type": "function"
    },
    {
      "constant": true,
      "inputs": [
        {
          "name": "scAddr",
          "type": "address"
        }
      ],
      "name": "countStateDeltas",
      "outputs": [
        {
          "name": "",
          "type": "uint256"
        }
      ],
      "payable": false,
      "stateMutability": "view",
      "type": "function"
    },
    {
      "constant": true,
      "inputs": [
        {
          "name": "scAddr",
          "type": "address"
        },
        {
          "name": "index",
          "type": "uint256"
        }
      ],
      "name": "getStateDeltaHash",
      "outputs": [
        {
          "name": "",
          "type": "bytes32"
        }
      ],
      "payable": false,
      "stateMutability": "view",
      "type": "function"
    },
    {
      "constant": true,
      "inputs": [
        {
          "name": "scAddr",
          "type": "address"
        },
        {
          "name": "start",
          "type": "uint256"
        },
        {
          "name": "stop",
          "type": "uint256"
        }
      ],
      "name": "getStateDeltaHashes",
      "outputs": [
        {
          "name": "",
          "type": "bytes32[]"
        }
      ],
      "payable": false,
      "stateMutability": "view",
      "type": "function"
    },
    {
      "constant": true,
      "inputs": [
        {
          "name": "scAddr",
          "type": "address"
        },
        {
          "name": "stateDeltaHash",
          "type": "bytes32"
        }
      ],
      "name": "isValidDeltaHash",
      "outputs": [
        {
          "name": "",
          "type": "bool"
        }
      ],
      "payable": false,
      "stateMutability": "view",
      "type": "function"
    },
    {
      "constant": false,
      "inputs": [
        {
          "name": "taskId",
          "type": "bytes32"
        },
        {
          "name": "fee",
          "type": "uint256"
        },
        {
          "name": "token",
          "type": "address"
        },
        {
          "name": "tokenValue",
          "type": "uint256"
        }
      ],
      "name": "createTaskRecord",
      "outputs": [],
      "payable": false,
      "stateMutability": "nonpayable",
      "type": "function"
    },
    {
      "constant": false,
      "inputs": [
        {
          "name": "taskIds",
          "type": "bytes32[]"
        },
        {
          "name": "fees",
          "type": "uint256[]"
        },
        {
          "name": "tokens",
          "type": "address[]"
        },
        {
          "name": "tokenValues",
          "type": "uint256[]"
        }
      ],
      "name": "createTaskRecords",
      "outputs": [],
      "payable": false,
      "stateMutability": "nonpayable",
      "type": "function"
    },
    {
      "constant": false,
      "inputs": [
        {
          "name": "scAddr",
          "type": "address"
        },
        {
          "name": "taskId",
          "type": "bytes32"
        },
        {
          "name": "inStateDeltaHash",
          "type": "bytes32"
        },
        {
          "name": "outStateDeltaHash",
          "type": "bytes32"
        },
        {
          "name": "ethCall",
          "type": "bytes"
        },
        {
          "name": "sig",
          "type": "bytes"
        }
      ],
      "name": "commitReceipt",
      "outputs": [],
      "payable": false,
      "stateMutability": "nonpayable",
      "type": "function"
    },
    {
      "constant": false,
      "inputs": [
        {
          "name": "scAddr",
          "type": "address"
        },
        {
          "name": "taskIds",
          "type": "bytes32[]"
        },
        {
          "name": "inStateDeltaHashes",
          "type": "bytes32[]"
        },
        {
          "name": "outStateDeltaHashes",
          "type": "bytes32[]"
        },
        {
          "name": "ethCall",
          "type": "bytes"
        },
        {
          "name": "sig",
          "type": "bytes"
        }
      ],
      "name": "commitReceipts",
      "outputs": [],
      "payable": false,
      "stateMutability": "nonpayable",
      "type": "function"
    },
    {
      "constant": false,
      "inputs": [
        {
          "name": "seed",
          "type": "uint256"
        },
        {
          "name": "sig",
          "type": "bytes"
        }
      ],
      "name": "setWorkersParams",
      "outputs": [],
      "payable": false,
      "stateMutability": "nonpayable",
      "type": "function"
    },
    {
      "constant": true,
      "inputs": [
        {
          "name": "blockNumber",
          "type": "uint256"
        }
      ],
      "name": "getWorkerParams",
      "outputs": [
        {
          "name": "",
          "type": "uint256"
        },
        {
          "name": "",
          "type": "uint256"
        },
        {
          "name": "",
          "type": "address[]"
        },
        {
          "name": "",
          "type": "uint256[]"
        }
      ],
      "payable": false,
      "stateMutability": "view",
      "type": "function"
    },
    {
      "constant": true,
      "inputs": [
        {
          "name": "blockNumber",
          "type": "uint256"
        },
        {
          "name": "scAddr",
          "type": "address"
        }
      ],
      "name": "getWorkerGroup",
      "outputs": [
        {
          "name": "",
          "type": "address[]"
        }
      ],
      "payable": false,
      "stateMutability": "view",
      "type": "function"
    },
    {
      "constant": true,
      "inputs": [
        {
          "name": "blockNumber",
          "type": "uint256"
        }
      ],
      "name": "getWorkersParams",
      "outputs": [
        {
          "name": "",
          "type": "uint256"
        },
        {
          "name": "",
          "type": "uint256"
        },
        {
          "name": "",
          "type": "address[]"
        },
        {
          "name": "",
          "type": "address[]"
        }
      ],
      "payable": false,
      "stateMutability": "view",
      "type": "function"
    },
    {
      "constant": true,
      "inputs": [
        {
          "name": "custodian",
          "type": "address"
        }
      ],
      "name": "getReport",
      "outputs": [
        {
          "name": "",
          "type": "address"
        },
        {
          "name": "",
          "type": "bytes"
        }
      ],
      "payable": false,
      "stateMutability": "view",
      "type": "function"
    }
  ],
  "bytecode": "0x60806040523480156200001157600080fd5b5060405160408062005b128339810180604052620000339190810190620000e2565b816000806101000a81548173ffffffffffffffffffffffffffffffffffffffff021916908373ffffffffffffffffffffffffffffffffffffffff16021790555080600160006101000a81548173ffffffffffffffffffffffffffffffffffffffff021916908373ffffffffffffffffffffffffffffffffffffffff1602179055506001601b819055506005601c81905550505062000143565b6000620000da825162000123565b905092915050565b60008060408385031215620000f657600080fd5b60006200010685828601620000cc565b92505060206200011985828601620000cc565b9150509250929050565b600073ffffffffffffffffffffffffffffffffffffffff82169050919050565b6159bf80620001536000396000f300608060405260043610610154576000357c0100000000000000000000000000000000000000000000000000000000900463ffffffff16806305e62db6146101595780630a318da01461019657806324b8fbf6146101d35780632873e73c146101fc5780634048a25714610225578063444094961461026557806347e7ef24146102a25780634d0edeaa146102cb5780635956efef146102f457806359c91a121461031d5780635f0dd5bb1461035d57806369dc9ff31461039a57806375bbf75b146103d95780637b5b2ce31461040457806381ea44081461044157806384062df71461047e5780638e055b8b146104bb57806390184b02146104f85780639489ad40146105355780639836ca3114610560578063a3bdae3e146105a0578063a85d84ef146105de578063d28cf5c114610607578063d3b524c414610630578063d961120314610659578063e579f50014610696575b600080fd5b34801561016557600080fd5b50610180600480360361017b91908101906147f9565b6106d8565b60405161018d91906151bd565b60405180910390f35b3480156101a257600080fd5b506101bd60048036036101b89190810190614997565b6108d1565b6040516101ca9190615052565b60405180910390f35b3480156101df57600080fd5b506101fa60048036036101f59190810190614769565b61090f565b005b34801561020857600080fd5b50610223600480360361021e91908101906149fc565b610bc1565b005b34801561023157600080fd5b5061024c600480360361024791908101906144cf565b611205565b60405161025c949392919061514f565b60405180910390f35b34801561027157600080fd5b5061028c600480360361028791908101906147bd565b6112fa565b60405161029991906152df565b60405180910390f35b3480156102ae57600080fd5b506102c960048036036102c491908101906147bd565b611409565b005b3480156102d757600080fd5b506102f260048036036102ed91908101906144f8565b6116a4565b005b34801561030057600080fd5b5061031b600480360361031691908101906146b0565b611967565b005b34801561032957600080fd5b50610344600480360361033f9190810190614997565b611d23565b60405161035494939291906155ac565b60405180910390f35b34801561036957600080fd5b50610384600480360361037f9190810190614997565b611d4e565b6040516103919190615052565b60405180910390f35b3480156103a657600080fd5b506103c160048036036103bc91908101906144cf565b611d8c565b6040516103d0939291906150bf565b60405180910390f35b3480156103e557600080fd5b506103ee611de3565b6040516103fb9190615529565b60405180910390f35b34801561041057600080fd5b5061042b600480360361042691908101906145f9565b611df0565b60405161043891906152c4565b60405180910390f35b34801561044d57600080fd5b50610468600480360361046391908101906144cf565b611f80565b60405161047591906152df565b60405180910390f35b34801561048a57600080fd5b506104a560048036036104a091908101906144cf565b612077565b6040516104b29190615529565b60405180910390f35b3480156104c757600080fd5b506104e260048036036104dd9190810190614a50565b612171565b6040516104ef919061519b565b60405180910390f35b34801561050457600080fd5b5061051f600480360361051a91908101906144cf565b61227a565b60405161052c91906152c4565b60405180910390f35b34801561054157600080fd5b5061054a6122fc565b60405161055791906153ae565b60405180910390f35b34801561056c57600080fd5b5061058760048036036105829190810190614997565b612321565b60405161059794939291906155ff565b60405180910390f35b3480156105ac57600080fd5b506105c760048036036105c291908101906144cf565b612482565b6040516105d59291906150f6565b60405180910390f35b3480156105ea57600080fd5b5061060560048036036106009190810190614848565b612851565b005b34801561061357600080fd5b5061062e60048036036106299190810190614934565b612b5b565b005b34801561063c57600080fd5b5061065760048036036106529190810190614635565b612d79565b005b34801561066557600080fd5b50610680600480360361067b91908101906149c0565b6131bb565b60405161068d919061519b565b60405180910390f35b3480156106a257600080fd5b506106bd60048036036106b8919081019061490b565b61358b565b6040516106cf96959493929190615544565b60405180910390f35b606080600080866001808111156106eb57fe5b601a60008373ffffffffffffffffffffffffffffffffffffffff1673ffffffffffffffffffffffffffffffffffffffff16815260200190815260200160002060030160009054906101000a900460ff16600181111561074657fe5b141515610788576040517f08c379a000000000000000000000000000000000000000000000000000000000815260040161077f906154e9565b60405180910390fd5b60008614156107da57601a60008973ffffffffffffffffffffffffffffffffffffffff1673ffffffffffffffffffffffffffffffffffffffff1681526020019081526020016000206002018054905095505b6107ed87876136ac90919063ffffffff16565b60405190808252806020026020018201604052801561081b5781602001602082028038833980820191505090505b509350600092508691505b858210156108c357601a60008973ffffffffffffffffffffffffffffffffffffffff1673ffffffffffffffffffffffffffffffffffffffff1681526020019081526020016000206002018281548110151561087d57fe5b9060005260206000200154848481518110151561089657fe5b90602001906020020190600019169081600019168152505082806001019350508180600101925050610826565b839450505050509392505050565b6016818154811015156108e057fe5b906000526020600020016000915054906101000a900473ffffffffffffffffffffffffffffffffffffffff1681565b600080601860003373ffffffffffffffffffffffffffffffffffffffff1673ffffffffffffffffffffffffffffffffffffffff16815260200190815260200160002060000160009054906101000a900473ffffffffffffffffffffffffffffffffffffffff1673ffffffffffffffffffffffffffffffffffffffff161415610a07576016805490509050601680548091906001016109ad9190614146565b50336016828154811015156109be57fe5b9060005260206000200160006101000a81548173ffffffffffffffffffffffffffffffffffffffff021916908373ffffffffffffffffffffffffffffffffffffffff1602179055505b82601860003373ffffffffffffffffffffffffffffffffffffffff1673ffffffffffffffffffffffffffffffffffffffff16815260200190815260200160002060000160006101000a81548173ffffffffffffffffffffffffffffffffffffffff021916908373ffffffffffffffffffffffffffffffffffffffff1602179055506000601860003373ffffffffffffffffffffffffffffffffffffffff1673ffffffffffffffffffffffffffffffffffffffff1681526020019081526020016000206002018190555081601860003373ffffffffffffffffffffffffffffffffffffffff1673ffffffffffffffffffffffffffffffffffffffff1681526020019081526020016000206001019080519060200190610b26929190614172565b506001601860003373ffffffffffffffffffffffffffffffffffffffff1673ffffffffffffffffffffffffffffffffffffffff16815260200190815260200160002060000160146101000a81548160ff021916908360ff1602179055507f0a31ee9d46a828884b81003c8498156ea6aa15b9b54bdd0ef0b533d9eba57e553384604051610bb492919061506d565b60405180910390a1505050565b60008060008033610bd06141f2565b601860008373ffffffffffffffffffffffffffffffffffffffff1673ffffffffffffffffffffffffffffffffffffffff168152602001908152602001600020608060405190810160405290816000820160009054906101000a900473ffffffffffffffffffffffffffffffffffffffff1673ffffffffffffffffffffffffffffffffffffffff1673ffffffffffffffffffffffffffffffffffffffff1681526020016000820160149054906101000a900460ff1660ff1660ff168152602001600182018054600181600116156101000203166002900480601f016020809104026020016040519081016040528092919081815260200182805460018160011615610100020316600290048015610d275780601f10610cfc57610100808354040283529160200191610d27565b820191906000526020600020905b815481529060010190602001808311610d0a57829003601f168201915b5050505050815260200160028201548152505090506000816020015160ff16111515610d88576040517f08c379a0000000000000000000000000000000000000000000000000000000008152600401610d7f906153c9565b60405180910390fd5b600160009054906101000a900473ffffffffffffffffffffffffffffffffffffffff1673ffffffffffffffffffffffffffffffffffffffff16601860003373ffffffffffffffffffffffffffffffffffffffff1673ffffffffffffffffffffffffffffffffffffffff16815260200190815260200160002060000160009054906101000a900473ffffffffffffffffffffffffffffffffffffffff1673ffffffffffffffffffffffffffffffffffffffff16141515610e7c576040517f08c379a0000000000000000000000000000000000000000000000000000000008152600401610e73906154a9565b60405180910390fd5b60009550600094505b6005851015610efa576000600286600581101515610e9f57fe5b60040201600001541415610eb557849550610efa565b600286600581101515610ec457fe5b6004020160000154600286600581101515610edb57fe5b60040201600001541015610eed578495505b8480600101955050610e85565b43600287600581101515610f0a57fe5b600402016000018190555087600287600581101515610f2557fe5b600402016003018190555060009350600092505b60168054905083101561119457601b5460186000601686815481101515610f5c57fe5b9060005260206000200160009054906101000a900473ffffffffffffffffffffffffffffffffffffffff1673ffffffffffffffffffffffffffffffffffffffff1673ffffffffffffffffffffffffffffffffffffffff1681526020019081526020016000206002015410151561118757600286600581101515610fdb57fe5b600402016001018054809190600101610ff49190614146565b5060168381548110151561100457fe5b9060005260206000200160009054906101000a900473ffffffffffffffffffffffffffffffffffffffff1660028760058110151561103e57fe5b600402016001018581548110151561105257fe5b9060005260206000200160006101000a81548173ffffffffffffffffffffffffffffffffffffffff021916908373ffffffffffffffffffffffffffffffffffffffff1602179055506002866005811015156110a957fe5b6004020160020180548091906001016110c29190614234565b50601860006016858154811015156110d657fe5b9060005260206000200160009054906101000a900473ffffffffffffffffffffffffffffffffffffffff1673ffffffffffffffffffffffffffffffffffffffff1673ffffffffffffffffffffffffffffffffffffffff1681526020019081526020016000206002015460028760058110151561114e57fe5b600402016002018581548110151561116257fe5b90600052602060002001819055506111846001856136c590919063ffffffff16565b93505b8280600101935050610f39565b7f7047379c64ccafb62f6625e6b2d8eb6e1b0e091fac56a11ab5e2fd896e4db1d088436002896005811015156111c657fe5b6004020160010160028a6005811015156111dc57fe5b600402016002016040516111f39493929190615652565b60405180910390a15050505050505050565b60186020528060005260406000206000915090508060000160009054906101000a900473ffffffffffffffffffffffffffffffffffffffff16908060000160149054906101000a900460ff1690806001018054600181600116156101000203166002900480601f0160208091040260200160405190810160405280929190818152602001828054600181600116156101000203166002900480156112ea5780601f106112bf576101008083540402835291602001916112ea565b820191906000526020600020905b8154815290600101906020018083116112cd57829003601f168201915b5050505050908060020154905084565b60008260018081111561130957fe5b601a60008373ffffffffffffffffffffffffffffffffffffffff1673ffffffffffffffffffffffffffffffffffffffff16815260200190815260200160002060030160009054906101000a900460ff16600181111561136457fe5b1415156113a6576040517f08c379a000000000000000000000000000000000000000000000000000000000815260040161139d906154e9565b60405180910390fd5b601a60008573ffffffffffffffffffffffffffffffffffffffff1673ffffffffffffffffffffffffffffffffffffffff168152602001908152602001600020600201838154811015156113f557fe5b906000526020600020015491505092915050565b816114126141f2565b601860008373ffffffffffffffffffffffffffffffffffffffff1673ffffffffffffffffffffffffffffffffffffffff168152602001908152602001600020608060405190810160405290816000820160009054906101000a900473ffffffffffffffffffffffffffffffffffffffff1673ffffffffffffffffffffffffffffffffffffffff1673ffffffffffffffffffffffffffffffffffffffff1681526020016000820160149054906101000a900460ff1660ff1660ff168152602001600182018054600181600116156101000203166002900480601f0160208091040260200160405190810160405280929190818152602001828054600181600116156101000203166002900480156115695780601f1061153e57610100808354040283529160200191611569565b820191906000526020600020905b81548152906001019060200180831161154c57829003601f168201915b5050505050815260200160028201548152505090506000816020015160ff161115156115ca576040517f08c379a00000000000000000000000000000000000000000000000000000000081526004016115c1906153c9565b60405180910390fd5b61161f83601860008773ffffffffffffffffffffffffffffffffffffffff1673ffffffffffffffffffffffffffffffffffffffff168152602001908152602001600020600201546136c590919063ffffffff16565b601860008673ffffffffffffffffffffffffffffffffffffffff1673ffffffffffffffffffffffffffffffffffffffff168152602001908152602001600020600201819055507fb3ef81558ed1a50072a492984535a009da8b129c749500b387f1e5f4886bdde58484604051611696929190615126565b60405180910390a150505050565b336116ad6141f2565b601860008373ffffffffffffffffffffffffffffffffffffffff1673ffffffffffffffffffffffffffffffffffffffff168152602001908152602001600020608060405190810160405290816000820160009054906101000a900473ffffffffffffffffffffffffffffffffffffffff1673ffffffffffffffffffffffffffffffffffffffff1673ffffffffffffffffffffffffffffffffffffffff1681526020016000820160149054906101000a900460ff1660ff1660ff168152602001600182018054600181600116156101000203166002900480601f0160208091040260200160405190810160405280929190818152602001828054600181600116156101000203166002900480156118045780601f106117d957610100808354040283529160200191611804565b820191906000526020600020905b8154815290600101906020018083116117e757829003601f168201915b5050505050815260200160028201548152505090506000816020015160ff16111515611865576040517f08c379a000000000000000000000000000000000000000000000000000000000815260040161185c906153c9565b60405180910390fd5b8760018081111561187257fe5b601a60008373ffffffffffffffffffffffffffffffffffffffff1673ffffffffffffffffffffffffffffffffffffffff16815260200190815260200160002060030160009054906101000a900460ff1660018111156118cd57fe5b14151561190f576040517f08c379a0000000000000000000000000000000000000000000000000000000008152600401611906906154e9565b60405180910390fd5b61191d8989898989896136e1565b7f49f3b610d2b607252a8901e3c134022c7a6330e5f6525f0ed84dd4a12747895888888888886040516119549594939291906151df565b60405180910390a1505050505050505050565b336119706141f2565b601860008373ffffffffffffffffffffffffffffffffffffffff1673ffffffffffffffffffffffffffffffffffffffff168152602001908152602001600020608060405190810160405290816000820160009054906101000a900473ffffffffffffffffffffffffffffffffffffffff1673ffffffffffffffffffffffffffffffffffffffff1673ffffffffffffffffffffffffffffffffffffffff1681526020016000820160149054906101000a900460ff1660ff1660ff168152602001600182018054600181600116156101000203166002900480601f016020809104026020016040519081016040528092919081815260200182805460018160011615610100020316600290048015611ac75780601f10611a9c57610100808354040283529160200191611ac7565b820191906000526020600020905b815481529060010190602001808311611aaa57829003601f168201915b5050505050815260200160028201548152505090506000816020015160ff16111515611b28576040517f08c379a0000000000000000000000000000000000000000000000000000000008152600401611b1f906153c9565b60405180910390fd5b87600180811115611b3557fe5b601a60008373ffffffffffffffffffffffffffffffffffffffff1673ffffffffffffffffffffffffffffffffffffffff16815260200190815260200160002060030160009054906101000a900460ff166001811115611b9057fe5b141515611bd2576040517f08c379a0000000000000000000000000000000000000000000000000000000008152600401611bc9906154e9565b60405180910390fd5b60006001811115611bdf57fe5b601960008a6000191660001916815260200190815260200160002060040160149054906101000a900460ff166001811115611c1657fe5b141515611c58576040517f08c379a0000000000000000000000000000000000000000000000000000000008152600401611c4f90615409565b60405180910390fd5b611c66898989898989613b1d565b83601960008a600019166000191681526020019081526020016000206003019080519060200190611c98929190614172565b506001601960008a6000191660001916815260200190815260200160002060040160146101000a81548160ff02191690836001811115611cd457fe5b02179055507f665329bb9a4e1062edc215d9c5ab57fa54c4c88e3dfbcc68e0cd92fdd010fa6e8888888888604051611d109594939291906152fa565b60405180910390a1505050505050505050565b6000806060806000806060806000935060009250838383839750975097509750505050509193509193565b601781815481101515611d5d57fe5b906000526020600020016000915054906101000a900473ffffffffffffffffffffffffffffffffffffffff1681565b601a6020528060005260406000206000915090508060000160009054906101000a900473ffffffffffffffffffffffffffffffffffffffff16908060010154908060030160009054906101000a900460ff16905083565b6000601780549050905090565b600080600084600180811115611e0257fe5b601a60008373ffffffffffffffffffffffffffffffffffffffff1673ffffffffffffffffffffffffffffffffffffffff16815260200190815260200160002060030160009054906101000a900460ff166001811115611e5d57fe5b141515611e9f576040517f08c379a0000000000000000000000000000000000000000000000000000000008152600401611e96906154e9565b60405180910390fd5b60009250600091505b601a60008773ffffffffffffffffffffffffffffffffffffffff1673ffffffffffffffffffffffffffffffffffffffff16815260200190815260200160002060020180549050821015611f74578460001916601a60008873ffffffffffffffffffffffffffffffffffffffff1673ffffffffffffffffffffffffffffffffffffffff16815260200190815260200160002060020183815481101515611f4957fe5b9060005260206000200154600019161415611f675760019250611f74565b8180600101925050611ea8565b82935050505092915050565b600081600180811115611f8f57fe5b601a60008373ffffffffffffffffffffffffffffffffffffffff1673ffffffffffffffffffffffffffffffffffffffff16815260200190815260200160002060030160009054906101000a900460ff166001811115611fea57fe5b14151561202c576040517f08c379a0000000000000000000000000000000000000000000000000000000008152600401612023906154e9565b60405180910390fd5b601a60008473ffffffffffffffffffffffffffffffffffffffff1673ffffffffffffffffffffffffffffffffffffffff16815260200190815260200160002060010154915050919050565b60008160018081111561208657fe5b601a60008373ffffffffffffffffffffffffffffffffffffffff1673ffffffffffffffffffffffffffffffffffffffff16815260200190815260200160002060030160009054906101000a900460ff1660018111156120e157fe5b141515612123576040517f08c379a000000000000000000000000000000000000000000000000000000000815260040161211a906154e9565b60405180910390fd5b601a60008473ffffffffffffffffffffffffffffffffffffffff1673ffffffffffffffffffffffffffffffffffffffff16815260200190815260200160002060020180549050915050919050565b60608060008060008514156121895760178054905094505b61219c86866136ac90919063ffffffff16565b6040519080825280602002602001820160405280156121ca5781602001602082028038833980820191505090505b509250600091508590505b8481101561226e576017818154811015156121ec57fe5b9060005260206000200160009054906101000a900473ffffffffffffffffffffffffffffffffffffffff16838381518110151561222557fe5b9060200190602002019073ffffffffffffffffffffffffffffffffffffffff16908173ffffffffffffffffffffffffffffffffffffffff168152505080806001019150506121d5565b82935050505092915050565b600060018081111561228857fe5b601a60008473ffffffffffffffffffffffffffffffffffffffff1673ffffffffffffffffffffffffffffffffffffffff16815260200190815260200160002060030160009054906101000a900460ff1660018111156122e357fe5b14156122f257600190506122f7565b600090505b919050565b6000809054906101000a900473ffffffffffffffffffffffffffffffffffffffff1681565b6000806060806000612331614260565b61233a87613cf5565b915060028260058110151561234b57fe5b600402016080604051908101604052908160008201548152602001600182018054806020026020016040519081016040528092919081815260200182805480156123ea57602002820191906000526020600020905b8160009054906101000a900473ffffffffffffffffffffffffffffffffffffffff1673ffffffffffffffffffffffffffffffffffffffff16815260200190600101908083116123a0575b505050505081526020016002820180548060200260200160405190810160405280929190818152602001828054801561244257602002820191906000526020600020905b81548152602001906001019080831161242e575b5050505050815260200160038201548152505090508060000151816060015182602001518360400151819150809050955095509550955050509193509193565b600060608261248f6141f2565b601860008373ffffffffffffffffffffffffffffffffffffffff1673ffffffffffffffffffffffffffffffffffffffff168152602001908152602001600020608060405190810160405290816000820160009054906101000a900473ffffffffffffffffffffffffffffffffffffffff1673ffffffffffffffffffffffffffffffffffffffff1673ffffffffffffffffffffffffffffffffffffffff1681526020016000820160149054906101000a900460ff1660ff1660ff168152602001600182018054600181600116156101000203166002900480601f0160208091040260200160405190810160405280929190818152602001828054600181600116156101000203166002900480156125e65780601f106125bb576101008083540402835291602001916125e6565b820191906000526020600020905b8154815290600101906020018083116125c957829003601f168201915b5050505050815260200160028201548152505090506000816020015160ff16111515612647576040517f08c379a000000000000000000000000000000000000000000000000000000000815260040161263e906153c9565b60405180910390fd5b6000601860008773ffffffffffffffffffffffffffffffffffffffff1673ffffffffffffffffffffffffffffffffffffffff16815260200190815260200160002060000160009054906101000a900473ffffffffffffffffffffffffffffffffffffffff1673ffffffffffffffffffffffffffffffffffffffff1614151515612705576040517f08c379a00000000000000000000000000000000000000000000000000000000081526004016126fc90615469565b60405180910390fd5b601860008673ffffffffffffffffffffffffffffffffffffffff1673ffffffffffffffffffffffffffffffffffffffff16815260200190815260200160002060000160009054906101000a900473ffffffffffffffffffffffffffffffffffffffff16601860008773ffffffffffffffffffffffffffffffffffffffff1673ffffffffffffffffffffffffffffffffffffffff168152602001908152602001600020600101808054600181600116156101000203166002900480601f01602080910402602001604051908101604052809291908181526020018280546001816001161561010002031660029004801561283f5780601f106128145761010080835404028352916020019161283f565b820191906000526020600020905b81548152906001019060200180831161282257829003601f168201915b50505050509050935093505050915091565b60008090505b8451811015612b1557600060196000878481518110151561287457fe5b906020019060200201516000191660001916815260200190815260200160002060040160009054906101000a900473ffffffffffffffffffffffffffffffffffffffff1673ffffffffffffffffffffffffffffffffffffffff16141515612910576040517f08c379a0000000000000000000000000000000000000000000000000000000008152600401612907906154c9565b60405180910390fd5b838181518110151561291e57fe5b9060200190602002015160196000878481518110151561293a57fe5b906020019060200201516000191660001916815260200190815260200160002060000181905550828181518110151561296f57fe5b9060200190602002015160196000878481518110151561298b57fe5b906020019060200201516000191660001916815260200190815260200160002060010160006101000a81548173ffffffffffffffffffffffffffffffffffffffff021916908373ffffffffffffffffffffffffffffffffffffffff16021790555081818151811015156129fa57fe5b90602001906020020151601960008784815181101515612a1657fe5b90602001906020020151600019166000191681526020019081526020016000206002018190555033601960008784815181101515612a5057fe5b906020019060200201516000191660001916815260200190815260200160002060040160006101000a81548173ffffffffffffffffffffffffffffffffffffffff021916908373ffffffffffffffffffffffffffffffffffffffff1602179055506000601960008784815181101515612ac557fe5b906020019060200201516000191660001916815260200190815260200160002060040160146101000a81548160ff02191690836001811115612b0357fe5b02179055508080600101915050612857565b7fcb8afab3437be2f96ef2a2932eb02d02fd765bfe8be7c1f5a58edd6452317dde8585858533604051612b4c959493929190615255565b60405180910390a15050505050565b600060196000866000191660001916815260200190815260200160002060040160009054906101000a900473ffffffffffffffffffffffffffffffffffffffff1673ffffffffffffffffffffffffffffffffffffffff16141515612bf4576040517f08c379a0000000000000000000000000000000000000000000000000000000008152600401612beb906154c9565b60405180910390fd5b82601960008660001916600019168152602001908152602001600020600001819055508160196000866000191660001916815260200190815260200160002060010160006101000a81548173ffffffffffffffffffffffffffffffffffffffff021916908373ffffffffffffffffffffffffffffffffffffffff16021790555080601960008660001916600019168152602001908152602001600020600201819055503360196000866000191660001916815260200190815260200160002060040160006101000a81548173ffffffffffffffffffffffffffffffffffffffff021916908373ffffffffffffffffffffffffffffffffffffffff160217905550600060196000866000191660001916815260200190815260200160002060040160146101000a81548160ff02191690836001811115612d2f57fe5b02179055507f51364a5a527e38841b15c974f7924dad755bc9ce0d29701d7501a7bd297b787b8484848433604051612d6b95949392919061535b565b60405180910390a150505050565b33612d826141f2565b601860008373ffffffffffffffffffffffffffffffffffffffff1673ffffffffffffffffffffffffffffffffffffffff168152602001908152602001600020608060405190810160405290816000820160009054906101000a900473ffffffffffffffffffffffffffffffffffffffff1673ffffffffffffffffffffffffffffffffffffffff1673ffffffffffffffffffffffffffffffffffffffff1681526020016000820160149054906101000a900460ff1660ff1660ff168152602001600182018054600181600116156101000203166002900480601f016020809104026020016040519081016040528092919081815260200182805460018160011615610100020316600290048015612ed95780601f10612eae57610100808354040283529160200191612ed9565b820191906000526020600020905b815481529060010190602001808311612ebc57829003601f168201915b5050505050815260200160028201548152505090506000816020015160ff16111515612f3a576040517f08c379a0000000000000000000000000000000000000000000000000000000008152600401612f31906153c9565b60405180910390fd5b60006001811115612f4757fe5b601a60008873ffffffffffffffffffffffffffffffffffffffff1673ffffffffffffffffffffffffffffffffffffffff16815260200190815260200160002060030160009054906101000a900460ff166001811115612fa257fe5b141515612fe4576040517f08c379a0000000000000000000000000000000000000000000000000000000008152600401612fdb906153e9565b60405180910390fd5b83601a60008873ffffffffffffffffffffffffffffffffffffffff1673ffffffffffffffffffffffffffffffffffffffff16815260200190815260200160002060000160006101000a81548173ffffffffffffffffffffffffffffffffffffffff021916908373ffffffffffffffffffffffffffffffffffffffff16021790555084601a60008873ffffffffffffffffffffffffffffffffffffffff1673ffffffffffffffffffffffffffffffffffffffff16815260200190815260200160002060010181600019169055506001601a60008873ffffffffffffffffffffffffffffffffffffffff1673ffffffffffffffffffffffffffffffffffffffff16815260200190815260200160002060030160006101000a81548160ff0219169083600181111561310f57fe5b021790555060178690806001815401808255809150509060018203906000526020600020016000909192909190916101000a81548173ffffffffffffffffffffffffffffffffffffffff021916908373ffffffffffffffffffffffffffffffffffffffff160217905550507fff27b3bb5dfb682b066cdace68b5dda84d03c3d2eadac54284aaec44cbcff51686866040516131ab929190615096565b60405180910390a1505050505050565b6060600060606131c9614260565b606060008060008060008060006131df8e613cf5565b9a506131ea8b613e37565b995060028b6005811015156131fb57fe5b6004020160806040519081016040529081600082015481526020016001820180548060200260200160405190810160405280929190818152602001828054801561329a57602002820191906000526020600020905b8160009054906101000a900473ffffffffffffffffffffffffffffffffffffffff1673ffffffffffffffffffffffffffffffffffffffff1681526020019060010190808311613250575b50505050508152602001600282018054806020026020016040519081016040528092919081815260200182805480156132f257602002820191906000526020600020905b8154815260200190600101908083116132de575b505050505081526020016003820154815250509850601c546040519080825280602002602001820160405280156133385781602001602082028038833980820191505090505b50975060009650600095505b601c54861015613577575b8689606001518a600001518f604051602001808581526020018481526020018381526020018273ffffffffffffffffffffffffffffffffffffffff1673ffffffffffffffffffffffffffffffffffffffff166c010000000000000000000000000281526014019450505050506040516020818303038152906040526040518082805190602001908083835b6020831015156133ff57805182526020820191506020810190506020830392506133da565b6001836020036101000a038019825116818451168082178552505050505050905001915050604051809103902094508951856001900481151561343e57fe5b069350898481518110151561344f57fe5b90602001906020020151925060009150600090505b87518110156134ce57878181518110151561347b57fe5b9060200190602002015173ffffffffffffffffffffffffffffffffffffffff168373ffffffffffffffffffffffffffffffffffffffff1614156134c157600191506134ce565b8080600101915050613464565b600015158215151415613527578288878151811015156134ea57fe5b9060200190602002019073ffffffffffffffffffffffffffffffffffffffff16908173ffffffffffffffffffffffffffffffffffffffff16815250505b86806001019750506000888781518110151561353f57fe5b9060200190602002015173ffffffffffffffffffffffffffffffffffffffff16141561356a5761334f565b8580600101965050613344565b879b50505050505050505050505092915050565b60196020528060005260406000206000915090508060000154908060010160009054906101000a900473ffffffffffffffffffffffffffffffffffffffff1690806002015490806003018054600181600116156101000203166002900480601f0160208091040260200160405190810160405280929190818152602001828054600181600116156101000203166002900480156136695780601f1061363e57610100808354040283529160200191613669565b820191906000526020600020905b81548152906001019060200180831161364c57829003601f168201915b5050505050908060040160009054906101000a900473ffffffffffffffffffffffffffffffffffffffff16908060040160149054906101000a900460ff16905086565b60008282111515156136ba57fe5b818303905092915050565b600081830190508281101515156136d857fe5b80905092915050565b6000806000601a60008a73ffffffffffffffffffffffffffffffffffffffff1673ffffffffffffffffffffffffffffffffffffffff16815260200190815260200160002060020180549050925060008314156137a057600060010287600081518110151561374b57fe5b906020019060200201516000191614151561379b576040517f08c379a000000000000000000000000000000000000000000000000000000000815260040161379290615449565b60405180910390fd5b613871565b601a60008a73ffffffffffffffffffffffffffffffffffffffff1673ffffffffffffffffffffffffffffffffffffffff1681526020019081526020016000206002016137f66001856136ac90919063ffffffff16565b81548110151561380257fe5b90600052602060002001546000191687600081518110151561382057fe5b9060200190602002015160001916141515613870576040517f08c379a000000000000000000000000000000000000000000000000000000000815260040161386790615429565b60405180910390fd5b5b600091505b87518210156139b0576000600181111561388c57fe5b601960008a8581518110151561389e57fe5b906020019060200201516000191660001916815260200190815260200160002060040160149054906101000a900460ff1660018111156138da57fe5b14151561391c576040517f08c379a000000000000000000000000000000000000000000000000000000000815260040161391390615409565b60405180910390fd5b60008211156139a357856001830381518110151561393657fe5b9060200190602002015160001916878381518110151561395257fe5b90602001906020020151600019161415156139a2576040517f08c379a000000000000000000000000000000000000000000000000000000000815260040161399990615489565b60405180910390fd5b5b8180600101925050613876565b600090505b8751811015613b1257601a60008a73ffffffffffffffffffffffffffffffffffffffff1673ffffffffffffffffffffffffffffffffffffffff1681526020019081526020016000206002018682815181101515613a0e57fe5b906020019060200201519080600181540180825580915050906001820390600052602060002001600090919290919091509060001916905550613a5c600189516136ac90919063ffffffff16565b811415613aae5783601960008a84815181101515613a7657fe5b90602001906020020151600019166000191681526020019081526020016000206003019080519060200190613aac929190614172565b505b6001601960008a84815181101515613ac257fe5b906020019060200201516000191660001916815260200190815260200160002060040160146101000a81548160ff02191690836001811115613b0057fe5b021790555080806001019150506139b5565b505050505050505050565b6000601a60008873ffffffffffffffffffffffffffffffffffffffff1673ffffffffffffffffffffffffffffffffffffffff1681526020019081526020016000206002018054905090506000811415613bc15760006001028560001916141515613bbc576040517f08c379a0000000000000000000000000000000000000000000000000000000008152600401613bb390615449565b60405180910390fd5b613c7a565b601a60008873ffffffffffffffffffffffffffffffffffffffff1673ffffffffffffffffffffffffffffffffffffffff168152602001908152602001600020600201613c176001836136ac90919063ffffffff16565b815481101515613c2357fe5b9060005260206000200154600019168560001916141515613c79576040517f08c379a0000000000000000000000000000000000000000000000000000000008152600401613c7090615429565b60405180910390fd5b5b601a60008873ffffffffffffffffffffffffffffffffffffffff1673ffffffffffffffffffffffffffffffffffffffff16815260200190815260200160002060020184908060018154018082558091505090600182039060005260206000200160009091929091909150906000191690555050505050505050565b60008060007fffffffffffffffffffffffffffffffffffffffffffffffffffffffffffffffff9150600090505b6005811015613dc25783600282600581101515613d3b57fe5b600402016000015411158015613dac57507fffffffffffffffffffffffffffffffffffffffffffffffffffffffffffffffff8260000b1480613dab575060028260000b600581101515613d8a57fe5b6004020160000154600282600581101515613da157fe5b6004020160000154115b5b15613db5578091505b8080600101915050613d22565b7fffffffffffffffffffffffffffffffffffffffffffffffffffffffffffffffff8260000b14151515613e2a576040517f08c379a0000000000000000000000000000000000000000000000000000000008152600401613e2190615509565b60405180910390fd5b8160000b92505050919050565b6060613e41614260565b60008060606000806000600289600581101515613e5a57fe5b60040201608060405190810160405290816000820154815260200160018201805480602002602001604051908101604052809291908181526020018280548015613ef957602002820191906000526020600020905b8160009054906101000a900473ffffffffffffffffffffffffffffffffffffffff1673ffffffffffffffffffffffffffffffffffffffff1681526020019060010190808311613eaf575b5050505050815260200160028201805480602002602001604051908101604052809291908181526020018280548015613f5157602002820191906000526020600020905b815481526020019060010190808311613f3d575b50505050508152602001600382015481525050965060009550600094505b866020015151851015613ff5576000876020015186815181101515613f9057fe5b9060200190602002015173ffffffffffffffffffffffffffffffffffffffff16141515613fe857613fe5876040015186815181101515613fcc57fe5b90602001906020020151876136c590919063ffffffff16565b95505b8480600101955050613f6f565b856040519080825280602002602001820160405280156140245781602001602082028038833980820191505090505b50935060009250600091505b86602001515182101561413757600087602001518381518110151561405157fe5b9060200190602002015173ffffffffffffffffffffffffffffffffffffffff1614151561412a57600090505b86604001518281518110151561408f57fe5b90602001906020020151811015614129578660200151828151811015156140b257fe5b9060200190602002015184848151811015156140ca57fe5b9060200190602002019073ffffffffffffffffffffffffffffffffffffffff16908173ffffffffffffffffffffffffffffffffffffffff168152505061411a6001846136c590919063ffffffff16565b9250808060010191505061407d565b5b8180600101925050614030565b83975050505050505050919050565b81548183558181111561416d5781836000526020600020918201910161416c9190614289565b5b505050565b828054600181600116156101000203166002900490600052602060002090601f016020900481019282601f106141b357805160ff19168380011785556141e1565b828001600101855582156141e1579182015b828111156141e05782518255916020019190600101906141c5565b5b5090506141ee9190614289565b5090565b608060405190810160405280600073ffffffffffffffffffffffffffffffffffffffff168152602001600060ff16815260200160608152602001600081525090565b81548183558181111561425b5781836000526020600020918201910161425a9190614289565b5b505050565b608060405190810160405280600081526020016060815260200160608152602001600081525090565b6142ab91905b808211156142a757600081600090555060010161428f565b5090565b90565b60006142ba82356158c8565b905092915050565b600082601f83011215156142d557600080fd5b81356142e86142e3826156d2565b6156a5565b9150818183526020840193506020810190508385602084028201111561430d57600080fd5b60005b8381101561433d578161432388826142ae565b845260208401935060208301925050600181019050614310565b5050505092915050565b600082601f830112151561435a57600080fd5b813561436d614368826156fa565b6156a5565b9150818183526020840193506020810190508385602084028201111561439257600080fd5b60005b838110156143c257816143a88882614451565b845260208401935060208301925050600181019050614395565b5050505092915050565b600082601f83011215156143df57600080fd5b81356143f26143ed82615722565b6156a5565b9150818183526020840193506020810190508385602084028201111561441757600080fd5b60005b83811015614447578161442d88826144bb565b84526020840193506020830192505060018101905061441a565b5050505092915050565b600061445d82356158e8565b905092915050565b600082601f830112151561447857600080fd5b813561448b6144868261574a565b6156a5565b915080825260208301602083018583830111156144a757600080fd5b6144b2838284615932565b50505092915050565b60006144c782356158f2565b905092915050565b6000602082840312156144e157600080fd5b60006144ef848285016142ae565b91505092915050565b60008060008060008060c0878903121561451157600080fd5b600061451f89828a016142ae565b965050602087013567ffffffffffffffff81111561453c57600080fd5b61454889828a01614347565b955050604087013567ffffffffffffffff81111561456557600080fd5b61457189828a01614347565b945050606087013567ffffffffffffffff81111561458e57600080fd5b61459a89828a01614347565b935050608087013567ffffffffffffffff8111156145b757600080fd5b6145c389828a01614465565b92505060a087013567ffffffffffffffff8111156145e057600080fd5b6145ec89828a01614465565b9150509295509295509295565b6000806040838503121561460c57600080fd5b600061461a858286016142ae565b925050602061462b85828601614451565b9150509250929050565b6000806000806080858703121561464b57600080fd5b6000614659878288016142ae565b945050602061466a87828801614451565b935050604061467b878288016142ae565b925050606085013567ffffffffffffffff81111561469857600080fd5b6146a487828801614465565b91505092959194509250565b60008060008060008060c087890312156146c957600080fd5b60006146d789828a016142ae565b96505060206146e889828a01614451565b95505060406146f989828a01614451565b945050606061470a89828a01614451565b935050608087013567ffffffffffffffff81111561472757600080fd5b61473389828a01614465565b92505060a087013567ffffffffffffffff81111561475057600080fd5b61475c89828a01614465565b9150509295509295509295565b6000806040838503121561477c57600080fd5b600061478a858286016142ae565b925050602083013567ffffffffffffffff8111156147a757600080fd5b6147b385828601614465565b9150509250929050565b600080604083850312156147d057600080fd5b60006147de858286016142ae565b92505060206147ef858286016144bb565b9150509250929050565b60008060006060848603121561480e57600080fd5b600061481c868287016142ae565b935050602061482d868287016144bb565b925050604061483e868287016144bb565b9150509250925092565b6000806000806080858703121561485e57600080fd5b600085013567ffffffffffffffff81111561487857600080fd5b61488487828801614347565b945050602085013567ffffffffffffffff8111156148a157600080fd5b6148ad878288016143cc565b935050604085013567ffffffffffffffff8111156148ca57600080fd5b6148d6878288016142c2565b925050606085013567ffffffffffffffff8111156148f357600080fd5b6148ff878288016143cc565b91505092959194509250565b60006020828403121561491d57600080fd5b600061492b84828501614451565b91505092915050565b6000806000806080858703121561494a57600080fd5b600061495887828801614451565b9450506020614969878288016144bb565b935050604061497a878288016142ae565b925050606061498b878288016144bb565b91505092959194509250565b6000602082840312156149a957600080fd5b60006149b7848285016144bb565b91505092915050565b600080604083850312156149d357600080fd5b60006149e1858286016144bb565b92505060206149f2858286016142ae565b9150509250929050565b60008060408385031215614a0f57600080fd5b6000614a1d858286016144bb565b925050602083013567ffffffffffffffff811115614a3a57600080fd5b614a4685828601614465565b9150509250929050565b60008060408385031215614a6357600080fd5b6000614a71858286016144bb565b9250506020614a82858286016144bb565b9150509250929050565b614a958161584f565b82525050565b6000614aa6826157c1565b808452602084019350614ab883615776565b60005b82811015614aea57614ace868351614a8c565b614ad78261580e565b9150602086019550600181019050614abb565b50849250505092915050565b6000614b01826157cc565b808452602084019350614b1383615783565b60005b82811015614b4557614b29868354614a8c565b614b328261581b565b9150602086019550600181019050614b16565b50849250505092915050565b6000614b5c826157d7565b808452602084019350614b6e83615795565b60005b82811015614ba057614b84868351614c71565b614b8d82615828565b9150602086019550600181019050614b71565b50849250505092915050565b6000614bb7826157e2565b808452602084019350614bc9836157a2565b60005b82811015614bfb57614bdf868351615034565b614be882615835565b9150602086019550600181019050614bcc565b50849250505092915050565b6000614c12826157ed565b808452602084019350614c24836157af565b60005b82811015614c5657614c3a868354615034565b614c4382615842565b9150602086019550600181019050614c27565b50849250505092915050565b614c6b8161586f565b82525050565b614c7a8161587b565b82525050565b6000614c8b82615803565b808452614c9f816020860160208601615941565b614ca881615974565b602085010191505092915050565b6000614cc1826157f8565b808452614cd5816020860160208601615941565b614cde81615974565b602085010191505092915050565b614cf5816158fc565b82525050565b614d048161590e565b82525050565b614d1381615920565b82525050565b6000601482527f556e7265676973746572656420776f726b65722e0000000000000000000000006020830152604082019050919050565b6000602182527f53656372657420636f6e747261637420616c7265616479206465706c6f79656460208301527f2e000000000000000000000000000000000000000000000000000000000000006040830152606082019050919050565b6000601382527f496e76616c6964207461736b20737461747573000000000000000000000000006020830152604082019050919050565b6000601e82527f496e76616c696420696e7075742073746174652064656c7461206861736800006020830152604082019050919050565b6000602e82527f496e76616c696420696e7075742073746174652064656c74612068617368206660208301527f6f7220656d7074792073746174650000000000000000000000000000000000006040830152606082019050919050565b6000601582527f576f726b6572206e6f74207265676973746572656400000000000000000000006020830152604082019050919050565b6000602382527f496e76616c69642073746174652064656c746120686173686573206f7264657260208301527f696e6700000000000000000000000000000000000000000000000000000000006040830152606082019050919050565b6000602682527f4f6e6c7920746865205072696e636970616c2063616e2075706461746520746860208301527f65207365656400000000000000000000000000000000000000000000000000006040830152606082019050919050565b6000601382527f5461736b20616c72656164792065786973742e000000000000000000000000006020830152604082019050919050565b6000601d82527f53656372657420636f6e7472616374206e6f74206465706c6f7965642e0000006020830152604082019050919050565b6000603682527f4e6f20776f726b65727320706172616d657465727320656e74727920666f722060208301527f73706563696669656420626c6f636b206e756d626572000000000000000000006040830152606082019050919050565b61503d816158b1565b82525050565b61504c816158bb565b82525050565b60006020820190506150676000830184614a8c565b92915050565b60006040820190506150826000830185614a8c565b61508f6020830184614a8c565b9392505050565b60006040820190506150ab6000830185614a8c565b6150b86020830184614c71565b9392505050565b60006060820190506150d46000830186614a8c565b6150e16020830185614c71565b6150ee6040830184614cfb565b949350505050565b600060408201905061510b6000830185614a8c565b818103602083015261511d8184614c80565b90509392505050565b600060408201905061513b6000830185614a8c565b6151486020830184615034565b9392505050565b60006080820190506151646000830187614a8c565b6151716020830186615043565b81810360408301526151838185614cb6565b90506151926060830184615034565b95945050505050565b600060208201905081810360008301526151b58184614a9b565b905092915050565b600060208201905081810360008301526151d78184614b51565b905092915050565b600060a08201905081810360008301526151f98188614b51565b9050818103602083015261520d8187614b51565b905081810360408301526152218186614b51565b905081810360608301526152358185614c80565b905081810360808301526152498184614c80565b90509695505050505050565b600060a082019050818103600083015261526f8188614b51565b905081810360208301526152838187614bac565b905081810360408301526152978186614a9b565b905081810360608301526152ab8185614bac565b90506152ba6080830184614a8c565b9695505050505050565b60006020820190506152d96000830184614c62565b92915050565b60006020820190506152f46000830184614c71565b92915050565b600060a08201905061530f6000830188614c71565b61531c6020830187614c71565b6153296040830186614c71565b818103606083015261533b8185614c80565b9050818103608083015261534f8184614c80565b90509695505050505050565b600060a0820190506153706000830188614c71565b61537d6020830187615034565b61538a6040830186614a8c565b6153976060830185615034565b6153a46080830184614a8c565b9695505050505050565b60006020820190506153c36000830184614cec565b92915050565b600060208201905081810360008301526153e281614d19565b9050919050565b6000602082019050818103600083015261540281614d50565b9050919050565b6000602082019050818103600083015261542281614dad565b9050919050565b6000602082019050818103600083015261544281614de4565b9050919050565b6000602082019050818103600083015261546281614e1b565b9050919050565b6000602082019050818103600083015261548281614e78565b9050919050565b600060208201905081810360008301526154a281614eaf565b9050919050565b600060208201905081810360008301526154c281614f0c565b9050919050565b600060208201905081810360008301526154e281614f69565b9050919050565b6000602082019050818103600083015261550281614fa0565b9050919050565b6000602082019050818103600083015261552281614fd7565b9050919050565b600060208201905061553e6000830184615034565b92915050565b600060c0820190506155596000830189615034565b6155666020830188614a8c565b6155736040830187615034565b81810360608301526155858186614cb6565b90506155946080830185614a8c565b6155a160a0830184614d0a565b979650505050505050565b60006080820190506155c16000830187615034565b6155ce6020830186615034565b81810360408301526155e08185614a9b565b905081810360608301526155f48184614a9b565b905095945050505050565b60006080820190506156146000830187615034565b6156216020830186615034565b81810360408301526156338185614a9b565b905081810360608301526156478184614bac565b905095945050505050565b60006080820190506156676000830187615034565b6156746020830186615034565b81810360408301526156868185614af6565b9050818103606083015261569a8184614c07565b905095945050505050565b6000604051905081810181811067ffffffffffffffff821117156156c857600080fd5b8060405250919050565b600067ffffffffffffffff8211156156e957600080fd5b602082029050602081019050919050565b600067ffffffffffffffff82111561571157600080fd5b602082029050602081019050919050565b600067ffffffffffffffff82111561573957600080fd5b602082029050602081019050919050565b600067ffffffffffffffff82111561576157600080fd5b601f19601f8301169050602081019050919050565b6000602082019050919050565b60008160005260206000209050919050565b6000602082019050919050565b6000602082019050919050565b60008160005260206000209050919050565b600081519050919050565b600081549050919050565b600081519050919050565b600081519050919050565b600081549050919050565b600081519050919050565b600081519050919050565b6000602082019050919050565b6000600182019050919050565b6000602082019050919050565b6000602082019050919050565b6000600182019050919050565b600073ffffffffffffffffffffffffffffffffffffffff82169050919050565b60008115159050919050565b6000819050919050565b600060028210151561589357fe5b819050919050565b60006002821015156158a957fe5b819050919050565b6000819050919050565b600060ff82169050919050565b600073ffffffffffffffffffffffffffffffffffffffff82169050919050565b6000819050919050565b6000819050919050565b60006159078261584f565b9050919050565b600061591982615885565b9050919050565b600061592b8261589b565b9050919050565b82818337600083830152505050565b60005b8381101561595f578082015181840152602081019050615944565b8381111561596e576000848401525b50505050565b6000601f19601f83011690509190505600a265627a7a7230582061dcfd37a966eefd05e73fb424bd45c90c02de12af12fdd4d51ee789857e5e786c6578706572696d656e74616cf50037",
  "source": "pragma solidity ^0.4.24;\npragma experimental ABIEncoderV2;\n\nimport \"openzeppelin-solidity/contracts/math/SafeMath.sol\";\nimport \"openzeppelin-solidity/contracts/ECRecovery.sol\";\n\n\ncontract ERC20 {\n    function allowance(address owner, address spender) public view returns (uint256);\n\n    function transferFrom(address from, address to, uint256 value) public returns (bool);\n\n    function approve(address spender, uint256 value) public returns (bool);\n\n    function totalSupply() public view returns (uint256);\n\n    function balanceOf(address who) public view returns (uint256);\n\n    function transfer(address to, uint256 value) public returns (bool);\n\n    event Transfer(address indexed from, address indexed to, uint256 value);\n    event Approval(address indexed owner, address indexed spender, uint256 value);\n}\n\n//MOCK\ncontract EnigmaMock {\n    using SafeMath for uint256;\n    using ECRecovery for bytes32;\n\n    // The interface of the deployed ENG ERC20 token contract\n    ERC20 public engToken;\n\n    struct Task {\n        uint fee;\n        address token;\n        uint tokenValue;\n        bytes proof; // Signature of (taskId, inStateDeltaHash, outStateDeltaHash, ethCall)\n        address sender;\n        TaskStatus status;\n    }\n    enum TaskStatus {RecordCreated, ReceiptVerified}\n\n    /**\n    * The signer address of the principal node\n    * This must be set when deploying the contract and remains immutable\n    * Since the signer address is derived from the public key of an\n    * SGX enclave, this ensures that the principal node cannot be tempered\n    * with or replaced.\n    */\n    address principal;\n\n    // The data representation of a worker (or node)\n    struct Worker {\n        address signer;\n        uint8 status; // Uninitialized: 0; Active: 1; Inactive: 2\n        bytes report; // Decided to store this as one  RLP encoded attribute for easier external storage in the future\n        uint256 balance;\n    }\n\n    /**\n    * The data representation of the worker parameters used as input for\n    * the worker selection algorithm\n    */\n    struct WorkersParams {\n        uint firstBlockNumber;\n        address[] workers;\n        uint[] balances;\n        uint seed;\n    }\n\n    struct SecretContract {\n        address owner;\n        bytes32 codeHash;\n        bytes32[] stateDeltaHashes;\n        SecretContractStatus status;\n        // TODO: consider keeping an index of taskIds\n    }\n    // TODO: do we want to have a contract lifecycle?\n    enum SecretContractStatus {Undefined, Deployed}\n\n    /**\n    * The last 5 worker parameters\n    * We keep a collection of worker parameters to account for latency issues.\n    * A computation task might be conceivably given out at a certain block number\n    * but executed at a later block in a different epoch. It follows that\n    * the contract must have access to the worker parameters effective when giving\n    * out the task, otherwise the selected worker would not match. We calculated\n    * that keeping the last 5 items should be more than enough to account for\n    * all latent tasks. Tasks results will be rejected past this limit.\n    */\n    WorkersParams[5] workersParams;\n\n    // An address-based index of all registered worker\n    address[] public workerAddresses;\n    // An address-based index of all secret contracts\n    address[] public scAddresses;\n\n    // A registry of all registered workers with their attributes\n    mapping(address => Worker) public workers;\n    mapping(bytes32 => Task) public tasks;\n    mapping(address => SecretContract) public contracts;\n\n    // TODO: do we keep tasks forever? if not, when do we delete them?\n    uint stakingThreshold;\n    uint workerGroupSize;\n\n    // The events emitted by the contract\n    event Registered(address custodian, address signer);\n    event ValidatedSig(bytes sig, bytes32 hash, address workerAddr);\n    event WorkersParameterized(uint seed, uint256 blockNumber, address[] workers, uint[] balances);\n    event TaskRecordCreated(bytes32 taskId, uint fee, address token, uint tokenValue, address sender);\n    event TaskRecordsCreated(bytes32[] taskIds, uint[] fees, address[] tokens, uint[] tokenValues, address sender);\n    event ReceiptVerified(bytes32 taskId, bytes32 inStateDeltaHash, bytes32 outStateDeltaHash, bytes ethCall, bytes sig);\n    event ReceiptsVerified(bytes32[] taskIds, bytes32[] inStateDeltaHashes, bytes32[] outStateDeltaHashes, bytes ethCall, bytes sig);\n    event DepositSuccessful(address from, uint value);\n    event SecretContractDeployed(address scAddr, bytes32 codeHash);\n\n    constructor(address _tokenAddress, address _principal) public {\n        engToken = ERC20(_tokenAddress);\n        principal = _principal;\n        stakingThreshold = 1;\n        workerGroupSize = 5;\n    }\n\n    //TODO: break down these methods into services for upgradability\n\n    /**\n    * Checks if the custodian wallet is registered as a worker\n    *\n    * @param user The custodian address of the worker\n    */\n    modifier workerRegistered(address user) {\n        Worker memory worker = workers[user];\n        require(worker.status > 0, \"Unregistered worker.\");\n        _;\n    }\n\n    modifier contractDeployed(address scAddr) {\n        require(contracts[scAddr].status == SecretContractStatus.Deployed, \"Secret contract not deployed.\");\n        _;\n    }\n\n    /**\n    * Registers a new worker of change the signer parameters of an existing\n    * worker. This should be called by every worker (and the principal)\n    * node in order to receive tasks.\n    *\n    * @param signer The signer address, derived from the enclave public key\n    * @param report The RLP encoded report returned by the IAS\n    */\n    function register(address signer, bytes report)\n    public\n    {\n        // TODO: consider exit if both signer and custodian as matching\n        // If the custodian is not already register, we add an index entry\n        if (workers[msg.sender].signer == 0x0) {\n            // TODO: does workerAddresses.push just work here?\n            uint index = workerAddresses.length;\n            workerAddresses.length++;\n            workerAddresses[index] = msg.sender;\n        }\n\n        // Set the custodian attributes\n        workers[msg.sender].signer = signer;\n        workers[msg.sender].balance = 0;\n        workers[msg.sender].report = report;\n        workers[msg.sender].status = 1;\n\n        emit Registered(msg.sender, signer);\n    }\n\n    function deposit(address custodian, uint amount)\n    public\n    workerRegistered(custodian)\n    {\n        //        require(engToken.allowance(custodian, to) >= amount, \"Not enough tokens allowed for transfer\");\n        //        engToken.transferFrom(custodian, this, amount);\n\n        workers[custodian].balance = workers[custodian].balance.add(amount);\n\n        emit DepositSuccessful(custodian, amount);\n    }\n\n    // TODO: should the scAddr be computed on-chain from the codeHash + some randomness\n    // TODO: should any user deploy a secret contract or only a trusted enclave?\n    function deploySecretContract(address scAddr, bytes32 codeHash, address owner, bytes sig)\n    public\n    workerRegistered(msg.sender)\n    {\n        require(contracts[scAddr].status == SecretContractStatus.Undefined, \"Secret contract already deployed.\");\n        //TODO: verify sig\n\n        //TODO: is this too naive?\n        contracts[scAddr].owner = owner;\n        contracts[scAddr].codeHash = codeHash;\n        contracts[scAddr].status = SecretContractStatus.Deployed;\n        scAddresses.push(scAddr);\n\n        emit SecretContractDeployed(scAddr, codeHash);\n    }\n\n    function isDeployed(address scAddr)\n    public\n    view\n    returns (bool)\n    {\n        if (contracts[scAddr].status == SecretContractStatus.Deployed) {\n            return true;\n        } else {\n            return false;\n        }\n    }\n\n    function getCodeHash(address scAddr)\n    public\n    view\n    contractDeployed(scAddr)\n    returns (bytes32)\n    {\n        return contracts[scAddr].codeHash;\n    }\n\n    function countSecretContracts()\n    public\n    view\n    returns (uint)\n    {\n        return scAddresses.length;\n    }\n\n    /**\n    * Selects address from start up to, but not including, the stop number\n    **/\n    function getSecretContractAddresses(uint start, uint stop)\n    public\n    view\n    returns (address[])\n    {\n        if (stop == 0) {\n            stop = scAddresses.length;\n        }\n        address[] memory addresses = new address[](stop.sub(start));\n        uint pos = 0;\n        for (uint i = start; i < stop; i++) {\n            addresses[pos] = scAddresses[i];\n        }\n        return addresses;\n    }\n\n    function countStateDeltas(address scAddr)\n    public\n    view\n    contractDeployed(scAddr)\n    returns (uint)\n    {\n        return contracts[scAddr].stateDeltaHashes.length;\n    }\n\n    function getStateDeltaHash(address scAddr, uint index)\n    public\n    view\n    contractDeployed(scAddr)\n    returns (bytes32)\n    {\n        return contracts[scAddr].stateDeltaHashes[index];\n    }\n\n    /**\n    * Selects state deltas from start up to, but not including, the stop number\n    **/\n    function getStateDeltaHashes(address scAddr, uint start, uint stop)\n    public\n    view\n    contractDeployed(scAddr)\n    returns (bytes32[])\n    {\n        if (stop == 0) {\n            stop = contracts[scAddr].stateDeltaHashes.length;\n        }\n        bytes32[] memory deltas = new bytes32[](stop.sub(start));\n        uint pos = 0;\n        for (uint i = start; i < stop; i++) {\n            deltas[pos] = contracts[scAddr].stateDeltaHashes[i];\n            pos++;\n        }\n        return deltas;\n    }\n\n    function isValidDeltaHash(address scAddr, bytes32 stateDeltaHash)\n    public\n    view\n    contractDeployed(scAddr)\n    returns (bool)\n    {\n        bool valid = false;\n        for (uint i = 0; i < contracts[scAddr].stateDeltaHashes.length; i++) {\n            if (contracts[scAddr].stateDeltaHashes[i] == stateDeltaHash) {\n                valid = true;\n                break;\n            }\n        }\n        return valid;\n    }\n\n    /**\n    * Store task record\n    *\n    */\n    function createTaskRecord(\n        bytes32 taskId,\n        uint fee,\n        address token,\n        uint tokenValue\n    )\n    public\n    {\n        require(tasks[taskId].sender == 0x0, \"Task already exist.\");\n\n        tasks[taskId].fee = fee;\n        tasks[taskId].token = token;\n        tasks[taskId].tokenValue = tokenValue;\n        tasks[taskId].sender = msg.sender;\n        tasks[taskId].status = TaskStatus.RecordCreated;\n\n        emit TaskRecordCreated(taskId, fee, token, tokenValue, msg.sender);\n    }\n\n    function createTaskRecords(\n        bytes32[] taskIds,\n        uint[] fees,\n        address[] tokens,\n        uint[] tokenValues\n    )\n    public\n    {\n        for (uint i = 0; i < taskIds.length; i++) {\n            require(tasks[taskIds[i]].sender == 0x0, \"Task already exist.\");\n\n            tasks[taskIds[i]].fee = fees[i];\n            tasks[taskIds[i]].token = tokens[i];\n            tasks[taskIds[i]].tokenValue = tokenValues[i];\n            tasks[taskIds[i]].sender = msg.sender;\n            tasks[taskIds[i]].status = TaskStatus.RecordCreated;\n        }\n        emit TaskRecordsCreated(taskIds, fees, tokens, tokenValues, msg.sender);\n    }\n\n    // Execute the encoded function in the specified contract\n    function executeCall(address to, uint256 value, bytes data)\n    internal\n    returns (bool success)\n    {\n        assembly {\n            success := call(gas, to, value, add(data, 0x20), mload(data), 0, 0)\n        }\n    }\n\n    function verifyReceipt(\n        address scAddr,\n        bytes32 taskId,\n        bytes32 inStateDeltaHash,\n        bytes32 outStateDeltaHash,\n        bytes ethCall,\n        bytes sig\n    )\n    internal\n    {\n        uint index = contracts[scAddr].stateDeltaHashes.length;\n        if (index == 0) {\n            require(inStateDeltaHash == 0x0, 'Invalid input state delta hash for empty state');\n        } else {\n            require(inStateDeltaHash == contracts[scAddr].stateDeltaHashes[index.sub(1)], 'Invalid input state delta hash');\n        }\n        contracts[scAddr].stateDeltaHashes.push(outStateDeltaHash);\n\n        // TODO: execute the Ethereum calls\n\n        // Build a hash to validate that the I/Os are matching\n        //MOCK\n        //bytes32 hash = keccak256(abi.encodePacked(taskId, inStateDeltaHash, outStateDeltaHash, ethCall));\n\n        // The worker address is not a real Ethereum wallet address but\n        // one generated from its signing key\n        //MOCK\n        //address workerAddr = hash.recover(sig);\n        //require(workerAddr == workers[msg.sender].signer, \"Invalid signature.\");\n    }\n\n    /**\n    * Commit the computation task results on chain\n    */\n    function commitReceipt(\n        address scAddr,\n        bytes32 taskId,\n        bytes32 inStateDeltaHash,\n        bytes32 outStateDeltaHash,\n        bytes ethCall,\n        bytes sig\n    )\n    public\n    workerRegistered(msg.sender)\n    contractDeployed(scAddr)\n    {\n        require(tasks[taskId].status == TaskStatus.RecordCreated, 'Invalid task status');\n        verifyReceipt(scAddr, taskId, inStateDeltaHash, outStateDeltaHash, ethCall, sig);\n\n        tasks[taskId].proof = sig;\n        tasks[taskId].status = TaskStatus.ReceiptVerified;\n        emit ReceiptVerified(taskId, inStateDeltaHash, outStateDeltaHash, ethCall, sig);\n    }\n\n    function verifyReceipts(\n        address scAddr,\n        bytes32[] taskIds,\n        bytes32[] inStateDeltaHashes,\n        bytes32[] outStateDeltaHashes,\n        bytes ethCall,\n        bytes sig\n    )\n    internal\n    {\n        // First, we verify the state delta hashes ordering\n        uint index = contracts[scAddr].stateDeltaHashes.length;\n        if (index == 0) {\n            require(inStateDeltaHashes[0] == 0x0, 'Invalid input state delta hash for empty state');\n        } else {\n            require(inStateDeltaHashes[0] == contracts[scAddr].stateDeltaHashes[index.sub(1)], 'Invalid input state delta hash');\n        }\n        for (uint i = 0; i < taskIds.length; i++) {\n            require(tasks[taskIds[i]].status == TaskStatus.RecordCreated, 'Invalid task status');\n            if (i > 0) {\n                require(inStateDeltaHashes[i] == outStateDeltaHashes[i - 1], 'Invalid state delta hashes ordering');\n            }\n        }\n        // TODO: verify signature\n        // Then, we store the outStateDeltaHashes\n        for (uint ic = 0; ic < taskIds.length; ic++) {\n            contracts[scAddr].stateDeltaHashes.push(outStateDeltaHashes[ic]);\n            if (ic == taskIds.length.sub(1)) {\n                tasks[taskIds[ic]].proof = sig;\n            }\n            tasks[taskIds[ic]].status = TaskStatus.ReceiptVerified;\n        }\n        // TODO: execute the Ethereum calls\n    }\n\n    function commitReceipts(\n        address scAddr,\n        bytes32[] taskIds,\n        bytes32[] inStateDeltaHashes,\n        bytes32[] outStateDeltaHashes,\n        bytes ethCall,\n        bytes sig\n    )\n    public\n    workerRegistered(msg.sender)\n    contractDeployed(scAddr)\n    {\n        verifyReceipts(scAddr, taskIds, inStateDeltaHashes, outStateDeltaHashes, ethCall, sig);\n        emit ReceiptsVerified(taskIds, inStateDeltaHashes, outStateDeltaHashes, ethCall, sig);\n    }\n\n    // Verify the signature submitted while reparameterizing workers\n    function verifyParamsSig(uint256 seed, bytes sig)\n    internal\n    pure\n    returns (address)\n    {\n        bytes32 hash = keccak256(abi.encodePacked(seed));\n        address signer = hash.recover(sig);\n        return signer;\n    }\n\n    /**\n    * Reparameterizing workers with a new seed\n    * This should be called for each epoch by the Principal node\n    *\n    * @param seed The random integer generated by the enclave\n    * @param sig The random integer signed by the the principal node's enclave\n    */\n    function setWorkersParams(uint seed, bytes sig)\n    public\n    workerRegistered(msg.sender)\n    {\n        // Reparameterizing workers with a new seed\n        // This should be called for each epoch by the Principal node\n\n        // We assume that the Principal is always the first registered node\n        require(workers[msg.sender].signer == principal, \"Only the Principal can update the seed\");\n        // TODO: verify the principal sig\n\n        // Create a new workers parameters item for the specified seed.\n        // The workers parameters list is a sort of cache, it never grows beyond its limit.\n        // If the list is full, the new item will replace the item assigned to the lowest block number.\n        uint paramIndex = 0;\n        for (uint pi = 0; pi < workersParams.length; pi++) {\n            // Find an empty slot in the array, if full use the lowest block number\n            if (workersParams[pi].firstBlockNumber == 0) {\n                paramIndex = pi;\n                break;\n            } else if (workersParams[pi].firstBlockNumber < workersParams[paramIndex].firstBlockNumber) {\n                paramIndex = pi;\n            }\n        }\n        workersParams[paramIndex].firstBlockNumber = block.number;\n        workersParams[paramIndex].seed = seed;\n\n        // Copy the current worker list\n        uint workerIndex = 0;\n        for (uint wi = 0; wi < workerAddresses.length; wi++) {\n            if (workers[workerAddresses[wi]].balance >= stakingThreshold) {\n                workersParams[paramIndex].workers.length++;\n                workersParams[paramIndex].workers[workerIndex] = workerAddresses[wi];\n\n                workersParams[paramIndex].balances.length++;\n                workersParams[paramIndex].balances[workerIndex] = workers[workerAddresses[wi]].balance;\n\n                workerIndex = workerIndex.add(1);\n            }\n        }\n        emit WorkersParameterized(seed, block.number, workersParams[paramIndex].workers, workersParams[paramIndex].balances);\n    }\n\n    function getWorkerParamsIndex(uint blockNumber)\n    internal\n    view\n    returns (uint)\n    {\n        // The workers parameters for a given block number\n        int8 index = - 1;\n        for (uint i = 0; i < workersParams.length; i++) {\n            if (workersParams[i].firstBlockNumber <= blockNumber && (index == - 1 || workersParams[i].firstBlockNumber > workersParams[uint(index)].firstBlockNumber)) {\n                index = int8(i);\n            }\n        }\n        require(index != - 1, \"No workers parameters entry for specified block number\");\n        return uint(index);\n    }\n\n    function getWorkerParams(uint blockNumber)\n    public\n    view\n    returns (uint, uint, address[], uint[]) {\n        uint index = getWorkerParamsIndex(blockNumber);\n        WorkersParams memory params = workersParams[index];\n        return (params.firstBlockNumber, params.seed, params.workers, params.balances);\n    }\n\n    function compileTokens(uint paramIndex)\n    internal\n    view\n    returns (address[])\n    {\n        WorkersParams memory params = workersParams[paramIndex];\n        uint tokenCpt = 0;\n        for (uint i = 0; i < params.workers.length; i++) {\n            if (params.workers[i] != 0x0) {\n                tokenCpt = tokenCpt.add(params.balances[i]);\n            }\n        }\n        address[] memory tokens = new address[](tokenCpt);\n        uint tokenIndex = 0;\n        for (uint ia = 0; ia < params.workers.length; ia++) {\n            if (params.workers[ia] != 0x0) {\n                for (uint ib = 0; ib < params.balances[ia]; ib++) {\n                    tokens[tokenIndex] = params.workers[ia];\n                    tokenIndex = tokenIndex.add(1);\n                }\n            }\n        }\n        return tokens;\n    }\n\n    function getWorkerGroup(uint blockNumber, address scAddr)\n    public\n    view\n    returns (address[])\n    {\n        // Compile a list of selected workers for the block number and\n        // secret contract.\n        uint paramIndex = getWorkerParamsIndex(blockNumber);\n        address[] memory tokens = compileTokens(paramIndex);\n        WorkersParams memory params = workersParams[paramIndex];\n\n        address[] memory selectedWorkers = new address[](workerGroupSize);\n        uint nonce = 0;\n        for (uint it = 0; it < workerGroupSize; it++) {\n            do {\n                bytes32 hash = keccak256(abi.encodePacked(nonce, params.seed, params.firstBlockNumber, scAddr));\n                uint index = uint256(hash) % tokens.length;\n                address worker = tokens[index];\n                bool dup = false;\n                for (uint id = 0; id < selectedWorkers.length; id++) {\n                    if (worker == selectedWorkers[id]) {\n                        dup = true;\n                        break;\n                    }\n                }\n                if (dup == false) {\n                    selectedWorkers[it] = worker;\n                }\n                nonce++;\n            }\n            while (selectedWorkers[it] == 0x0);\n        }\n        return selectedWorkers;\n    }\n\n    /**\n    * The worker parameters corresponding to the specified block number\n    *\n    * @param blockNumber The reference block number\n    */\n    function getWorkersParams(uint blockNumber)\n    public\n    view\n    returns (uint, uint, address[], address[])\n    {\n        // TODO: finalize implementation\n        uint firstBlockNumber = 0;\n        uint seed = 0;\n        address[] memory activeWorkers;\n        address[] memory activeContracts;\n        return (firstBlockNumber, seed, activeWorkers, activeContracts);\n    }\n\n    /**\n    * The RLP encoded report returned by the IAS server\n    *\n    * @param custodian The worker's custodian address\n    */\n    function getReport(address custodian)\n    public\n    view\n    workerRegistered(custodian)\n    returns (address, bytes)\n    {\n        // The RLP encoded report and signer's address for the specified worker\n        require(workers[custodian].signer != 0x0, \"Worker not registered\");\n        return (workers[custodian].signer, workers[custodian].report);\n    }\n}",
  "sourcePath": "/home/wildermind/WebstormProjects/enigma-p2p/test/ethereum/scripts/contracts/EnigmaMock.sol",
  "compiler": {
    "name": "solc",
    "version": "0.4.24+commit.e67f0147.Emscripten.clang"
  },
  "schemaVersion": "2.0.1",
  "updatedAt": "2018-11-18T16:18:42.379Z"
}